{
  "contractName": "BondContract",
  "abi": [
    {
      "inputs": [
        {
          "internalType": "address",
          "name": "_sender",
          "type": "address"
        }
      ],
      "stateMutability": "nonpayable",
      "type": "constructor"
    },
    {
      "inputs": [],
      "name": "bond",
      "outputs": [
        {
          "internalType": "string",
          "name": "intro",
          "type": "string"
        },
        {
          "internalType": "address payable",
          "name": "issuer",
          "type": "address"
        },
        {
          "internalType": "address payable",
          "name": "holder",
          "type": "address"
        },
        {
          "internalType": "enum BondContract.StatusChoice",
          "name": "status",
          "type": "uint8"
        },
        {
          "internalType": "uint32",
          "name": "principal",
          "type": "uint32"
        },
        {
          "internalType": "uint8",
          "name": "couponRate",
          "type": "uint8"
        },
        {
          "internalType": "uint32",
          "name": "couponDate",
          "type": "uint32"
        },
        {
          "internalType": "uint32",
          "name": "maturityDate",
          "type": "uint32"
        },
        {
          "internalType": "enum BondContract.CurrencyType",
          "name": "currency",
          "type": "uint8"
        },
        {
          "internalType": "string",
          "name": "security",
          "type": "string"
        },
        {
          "internalType": "string",
          "name": "appendix",
          "type": "string"
        }
      ],
      "stateMutability": "view",
      "type": "function"
    },
    {
      "inputs": [
        {
          "internalType": "enum BondContract.CurrencyType",
          "name": "_currency",
          "type": "uint8"
        },
        {
          "internalType": "uint32",
          "name": "_principal",
          "type": "uint32"
        },
        {
          "internalType": "uint8",
          "name": "_couponRate",
          "type": "uint8"
        },
        {
          "internalType": "uint32",
          "name": "_couponDate",
          "type": "uint32"
        },
        {
          "internalType": "uint32",
          "name": "_maturityDate",
          "type": "uint32"
        },
        {
          "internalType": "address",
          "name": "_sender",
          "type": "address"
        }
      ],
      "name": "setBodyInfo",
      "outputs": [],
      "stateMutability": "nonpayable",
      "type": "function"
    },
    {
      "inputs": [
        {
          "internalType": "enum BondContract.StatusChoice",
          "name": "_status",
          "type": "uint8"
        }
      ],
      "name": "setStatus",
      "outputs": [],
      "stateMutability": "nonpayable",
      "type": "function"
    },
    {
      "inputs": [
        {
          "internalType": "address payable",
          "name": "_holder",
          "type": "address"
        },
        {
          "internalType": "address payable",
          "name": "_sender",
          "type": "address"
        }
      ],
      "name": "setBondHolder",
      "outputs": [],
      "stateMutability": "nonpayable",
      "type": "function"
    },
    {
      "inputs": [
        {
          "internalType": "string",
          "name": "_intro",
          "type": "string"
        },
        {
          "internalType": "address",
          "name": "_sender",
          "type": "address"
        }
      ],
      "name": "setIntro",
      "outputs": [],
      "stateMutability": "nonpayable",
      "type": "function"
    },
    {
      "inputs": [
        {
          "internalType": "string",
          "name": "_security",
          "type": "string"
        },
        {
          "internalType": "address",
          "name": "_sender",
          "type": "address"
        }
      ],
      "name": "setSecurity",
      "outputs": [],
      "stateMutability": "nonpayable",
      "type": "function"
    },
    {
      "inputs": [
        {
          "internalType": "string",
          "name": "_appendix",
          "type": "string"
        },
        {
          "internalType": "address",
          "name": "_sender",
          "type": "address"
        }
      ],
      "name": "setAppendix",
      "outputs": [],
      "stateMutability": "nonpayable",
      "type": "function"
    },
    {
      "inputs": [
        {
          "internalType": "address payable",
          "name": "_sender",
          "type": "address"
        }
      ],
      "name": "signBondStatus",
      "outputs": [],
      "stateMutability": "nonpayable",
      "type": "function"
    }
  ],
  "bytecode": "0x60806040526040518060400160405280600e81526020017f307830303030303030306639333700000000000000000000000000000000000081525060009080519060200190620000519291906200014f565b506040518060400160405280600e81526020017f3078303030303030303137643239000000000000000000000000000000000000815250600190805190602001906200009f9291906200014f565b50348015620000ad57600080fd5b50604051620026b3380380620026b38339818101604052810190620000d3919062000269565b80600360010160006101000a81548173ffffffffffffffffffffffffffffffffffffffff021916908373ffffffffffffffffffffffffffffffffffffffff1602179055506000600360020160146101000a81548160ff021916908360068111156200014357620001426200029b565b5b0217905550506200032f565b8280546200015d90620002f9565b90600052602060002090601f016020900481019282620001815760008555620001cd565b82601f106200019c57805160ff1916838001178555620001cd565b82800160010185558215620001cd579182015b82811115620001cc578251825591602001919060010190620001af565b5b509050620001dc9190620001e0565b5090565b5b80821115620001fb576000816000905550600101620001e1565b5090565b600080fd5b600073ffffffffffffffffffffffffffffffffffffffff82169050919050565b6000620002318262000204565b9050919050565b620002438162000224565b81146200024f57600080fd5b50565b600081519050620002638162000238565b92915050565b600060208284031215620002825762000281620001ff565b5b6000620002928482850162000252565b91505092915050565b7f4e487b7100000000000000000000000000000000000000000000000000000000600052602160045260246000fd5b7f4e487b7100000000000000000000000000000000000000000000000000000000600052602260045260246000fd5b600060028204905060018216806200031257607f821691505b60208210811415620003295762000328620002ca565b5b50919050565b612374806200033f6000396000f3fe608060405234801561001057600080fd5b50600436106100885760003560e01c80638ec13d501161005b5780638ec13d5014610109578063a01694a214610125578063d413692214610141578063db3d57a71461015d57610088565b8063083aea571461008d5780632e49d78b146100a957806364c9ec6f146100c557806382626343146100ed575b600080fd5b6100a760048036038101906100a29190611888565b610179565b005b6100c360048036038101906100be9190611909565b610331565b005b6100cd6105e4565b6040516100e49b9a99989796959493929190611ad9565b60405180910390f35b61010760048036038101906101029190611c16565b61085b565b005b610123600480360381019061011e9190611ccf565b610ab2565b005b61013f600480360381019061013a9190611888565b610bdc565b005b61015b60048036038101906101569190611cfc565b610d94565b005b61017760048036038101906101729190611888565b61100f565b005b6002600681111561018d5761018c6119df565b5b600360020160149054906101000a900460ff1660068111156101b2576101b16119df565b5b1480156101c457506101c26111c7565b155b15610204576040517f08c379a00000000000000000000000000000000000000000000000000000000081526004016101fb90611dae565b60405180910390fd5b60036006811115610218576102176119df565b5b600360020160149054906101000a900460ff16600681111561023d5761023c6119df565b5b111561027e576040517f08c379a000000000000000000000000000000000000000000000000000000000815260040161027590611e1a565b60405180910390fd5b80600360010160009054906101000a900473ffffffffffffffffffffffffffffffffffffffff1673ffffffffffffffffffffffffffffffffffffffff168173ffffffffffffffffffffffffffffffffffffffff1614610312576040517f08c379a000000000000000000000000000000000000000000000000000000000815260040161030990611eac565b60405180910390fd5b826003600401908051906020019061032b92919061162d565b50505050565b60026006811115610345576103446119df565b5b600360020160149054906101000a900460ff16600681111561036a576103696119df565b5b14801561037c575061037a6111c7565b155b156103bc576040517f08c379a00000000000000000000000000000000000000000000000000000000081526004016103b390611dae565b60405180910390fd5b6006808111156103cf576103ce6119df565b5b600360020160149054906101000a900460ff1660068111156103f4576103f36119df565b5b1415610435576040517f08c379a000000000000000000000000000000000000000000000000000000000815260040161042c90611f18565b60405180910390fd5b60016006811115610449576104486119df565b5b60ff1681600681111561045f5761045e6119df565b5b60ff161180156104c05750600073ffffffffffffffffffffffffffffffffffffffff16600360020160009054906101000a900473ffffffffffffffffffffffffffffffffffffffff1673ffffffffffffffffffffffffffffffffffffffff16145b15610500576040517f08c379a00000000000000000000000000000000000000000000000000000000081526004016104f790611f84565b60405180910390fd5b60016006811115610514576105136119df565b5b60ff1681600681111561052a576105296119df565b5b60ff1611801561053e575061053d61129b565b5b1561057e576040517f08c379a000000000000000000000000000000000000000000000000000000000815260040161057590612016565b60405180910390fd5b60026006811115610592576105916119df565b5b8160068111156105a5576105a46119df565b5b14156105b4576105b361132b565b5b80600360020160146101000a81548160ff021916908360068111156105dc576105db6119df565b5b021790555050565b60038060000180546105f590612065565b80601f016020809104026020016040519081016040528092919081815260200182805461062190612065565b801561066e5780601f106106435761010080835404028352916020019161066e565b820191906000526020600020905b81548152906001019060200180831161065157829003601f168201915b5050505050908060010160009054906101000a900473ffffffffffffffffffffffffffffffffffffffff16908060020160009054906101000a900473ffffffffffffffffffffffffffffffffffffffff16908060020160149054906101000a900460ff16908060020160159054906101000a900463ffffffff16908060020160199054906101000a900460ff169080600201601a9054906101000a900463ffffffff16908060030160009054906101000a900463ffffffff16908060030160049054906101000a900460ff169080600401805461074a90612065565b80601f016020809104026020016040519081016040528092919081815260200182805461077690612065565b80156107c35780601f10610798576101008083540402835291602001916107c3565b820191906000526020600020905b8154815290600101906020018083116107a657829003601f168201915b5050505050908060050180546107d890612065565b80601f016020809104026020016040519081016040528092919081815260200182805461080490612065565b80156108515780601f1061082657610100808354040283529160200191610851565b820191906000526020600020905b81548152906001019060200180831161083457829003601f168201915b505050505090508b565b80600360010160009054906101000a900473ffffffffffffffffffffffffffffffffffffffff1673ffffffffffffffffffffffffffffffffffffffff168173ffffffffffffffffffffffffffffffffffffffff16146108ef576040517f08c379a00000000000000000000000000000000000000000000000000000000081526004016108e690611eac565b60405180910390fd5b60026006811115610903576109026119df565b5b600360020160149054906101000a900460ff166006811115610928576109276119df565b5b14801561093a57506109386111c7565b155b1561097a576040517f08c379a000000000000000000000000000000000000000000000000000000000815260040161097190611dae565b60405180910390fd5b6003600681111561098e5761098d6119df565b5b600360020160149054906101000a900460ff1660068111156109b3576109b26119df565b5b11156109f4576040517f08c379a00000000000000000000000000000000000000000000000000000000081526004016109eb90611e1a565b60405180910390fd5b866003800160046101000a81548160ff02191690836006811115610a1b57610a1a6119df565b5b021790555085600360020160156101000a81548163ffffffff021916908363ffffffff16021790555084600360020160196101000a81548160ff021916908360ff160217905550836003600201601a6101000a81548163ffffffff021916908363ffffffff160217905550826003800160006101000a81548163ffffffff021916908363ffffffff16021790555050505050505050565b600360010160009054906101000a900473ffffffffffffffffffffffffffffffffffffffff1673ffffffffffffffffffffffffffffffffffffffff168173ffffffffffffffffffffffffffffffffffffffff161480610b615750600360020160009054906101000a900473ffffffffffffffffffffffffffffffffffffffff1673ffffffffffffffffffffffffffffffffffffffff168173ffffffffffffffffffffffffffffffffffffffff16145b610ba0576040517f08c379a0000000000000000000000000000000000000000000000000000000008152600401610b9790612109565b60405180910390fd5b6000610bbe82600360020160149054906101000a900460ff166113eb565b90504260026000838152602001908152602001600020819055505050565b60026006811115610bf057610bef6119df565b5b600360020160149054906101000a900460ff166006811115610c1557610c146119df565b5b148015610c275750610c256111c7565b155b15610c67576040517f08c379a0000000000000000000000000000000000000000000000000000000008152600401610c5e90611dae565b60405180910390fd5b60036006811115610c7b57610c7a6119df565b5b600360020160149054906101000a900460ff166006811115610ca057610c9f6119df565b5b1115610ce1576040517f08c379a0000000000000000000000000000000000000000000000000000000008152600401610cd890611e1a565b60405180910390fd5b80600360010160009054906101000a900473ffffffffffffffffffffffffffffffffffffffff1673ffffffffffffffffffffffffffffffffffffffff168173ffffffffffffffffffffffffffffffffffffffff1614610d75576040517f08c379a0000000000000000000000000000000000000000000000000000000008152600401610d6c90611eac565b60405180910390fd5b8260036005019080519060200190610d8e92919061162d565b50505050565b60026006811115610da857610da76119df565b5b600360020160149054906101000a900460ff166006811115610dcd57610dcc6119df565b5b148015610ddf5750610ddd6111c7565b155b15610e1f576040517f08c379a0000000000000000000000000000000000000000000000000000000008152600401610e1690611dae565b60405180910390fd5b80600360010160009054906101000a900473ffffffffffffffffffffffffffffffffffffffff1673ffffffffffffffffffffffffffffffffffffffff168173ffffffffffffffffffffffffffffffffffffffff1614610eb3576040517f08c379a0000000000000000000000000000000000000000000000000000000008152600401610eaa90611eac565b60405180910390fd5b8273ffffffffffffffffffffffffffffffffffffffff16600360010160009054906101000a900473ffffffffffffffffffffffffffffffffffffffff1673ffffffffffffffffffffffffffffffffffffffff161415610f47576040517f08c379a0000000000000000000000000000000000000000000000000000000008152600401610f3e9061219b565b60405180910390fd5b60016006811115610f5b57610f5a6119df565b5b60ff16600360020160149054906101000a900460ff166006811115610f8357610f826119df565b5b60ff1614610fc6576040517f08c379a0000000000000000000000000000000000000000000000000000000008152600401610fbd9061222d565b60405180910390fd5b82600360020160006101000a81548173ffffffffffffffffffffffffffffffffffffffff021916908373ffffffffffffffffffffffffffffffffffffffff160217905550505050565b60026006811115611023576110226119df565b5b600360020160149054906101000a900460ff166006811115611048576110476119df565b5b14801561105a57506110586111c7565b155b1561109a576040517f08c379a000000000000000000000000000000000000000000000000000000000815260040161109190611dae565b60405180910390fd5b600360068111156110ae576110ad6119df565b5b600360020160149054906101000a900460ff1660068111156110d3576110d26119df565b5b1115611114576040517f08c379a000000000000000000000000000000000000000000000000000000000815260040161110b90611e1a565b60405180910390fd5b80600360010160009054906101000a900473ffffffffffffffffffffffffffffffffffffffff1673ffffffffffffffffffffffffffffffffffffffff168173ffffffffffffffffffffffffffffffffffffffff16146111a8576040517f08c379a000000000000000000000000000000000000000000000000000000000815260040161119f90611eac565b60405180910390fd5b82600360000190805190602001906111c192919061162d565b50505050565b60008061120b600360010160009054906101000a900473ffffffffffffffffffffffffffffffffffffffff16600360020160149054906101000a900460ff166113eb565b90506000611250600360020160009054906101000a900473ffffffffffffffffffffffffffffffffffffffff16600360020160149054906101000a900460ff166113eb565b90506000600260008481526020019081526020016000205490506000600260008481526020019081526020016000205490506000821180156112925750600081115b94505050505090565b600080600360020160159054906101000a900463ffffffff1663ffffffff1614806112db57506000600360020160199054906101000a900460ff1660ff16145b80611301575060006003600201601a9054906101000a900463ffffffff1663ffffffff16145b80611326575060006003800160009054906101000a900463ffffffff1663ffffffff16145b905090565b600061136e600360010160009054906101000a900473ffffffffffffffffffffffffffffffffffffffff16600360020160149054906101000a900460ff166113eb565b905060006113b3600360020160009054906101000a900473ffffffffffffffffffffffffffffffffffffffff16600360020160149054906101000a900460ff166113eb565b905060006002600084815260200190815260200160002081905550600060026000838152602001908152602001600020819055505050565b600080604051806020016040528060008152509050600360010160009054906101000a900473ffffffffffffffffffffffffffffffffffffffff1673ffffffffffffffffffffffffffffffffffffffff168473ffffffffffffffffffffffffffffffffffffffff1614156114eb576000805461146690612065565b80601f016020809104026020016040519081016040528092919081815260200182805461149290612065565b80156114df5780601f106114b4576101008083540402835291602001916114df565b820191906000526020600020905b8154815290600101906020018083116114c257829003601f168201915b50505050509050611579565b600180546114f890612065565b80601f016020809104026020016040519081016040528092919081815260200182805461152490612065565b80156115715780601f1061154657610100808354040283529160200191611571565b820191906000526020600020905b81548152906001019060200180831161155457829003601f168201915b505050505090505b808460018560068111156115905761158f6119df565b5b61159a919061227c565b6040516024016115ab9291906122c2565b604051602081830303815290604052906040516115c89190612327565b60405180910390207bffffffffffffffffffffffffffffffffffffffffffffffffffffffff19166020820180517bffffffffffffffffffffffffffffffffffffffffffffffffffffffff83818316178352505050508051906020012091505092915050565b82805461163990612065565b90600052602060002090601f01602090048101928261165b57600085556116a2565b82601f1061167457805160ff19168380011785556116a2565b828001600101855582156116a2579182015b828111156116a1578251825591602001919060010190611686565b5b5090506116af91906116b3565b5090565b5b808211156116cc5760008160009055506001016116b4565b5090565b6000604051905090565b600080fd5b600080fd5b600080fd5b600080fd5b6000601f19601f8301169050919050565b7f4e487b7100000000000000000000000000000000000000000000000000000000600052604160045260246000fd5b611737826116ee565b810181811067ffffffffffffffff82111715611756576117556116ff565b5b80604052505050565b60006117696116d0565b9050611775828261172e565b919050565b600067ffffffffffffffff821115611795576117946116ff565b5b61179e826116ee565b9050602081019050919050565b82818337600083830152505050565b60006117cd6117c88461177a565b61175f565b9050828152602081018484840111156117e9576117e86116e9565b5b6117f48482856117ab565b509392505050565b600082601f830112611811576118106116e4565b5b81356118218482602086016117ba565b91505092915050565b600073ffffffffffffffffffffffffffffffffffffffff82169050919050565b60006118558261182a565b9050919050565b6118658161184a565b811461187057600080fd5b50565b6000813590506118828161185c565b92915050565b6000806040838503121561189f5761189e6116da565b5b600083013567ffffffffffffffff8111156118bd576118bc6116df565b5b6118c9858286016117fc565b92505060206118da85828601611873565b9150509250929050565b600781106118f157600080fd5b50565b600081359050611903816118e4565b92915050565b60006020828403121561191f5761191e6116da565b5b600061192d848285016118f4565b91505092915050565b600081519050919050565b600082825260208201905092915050565b60005b83811015611970578082015181840152602081019050611955565b8381111561197f576000848401525b50505050565b600061199082611936565b61199a8185611941565b93506119aa818560208601611952565b6119b3816116ee565b840191505092915050565b60006119c98261182a565b9050919050565b6119d9816119be565b82525050565b7f4e487b7100000000000000000000000000000000000000000000000000000000600052602160045260246000fd5b60078110611a1f57611a1e6119df565b5b50565b6000819050611a3082611a0e565b919050565b6000611a4082611a22565b9050919050565b611a5081611a35565b82525050565b600063ffffffff82169050919050565b611a6f81611a56565b82525050565b600060ff82169050919050565b611a8b81611a75565b82525050565b60078110611aa257611aa16119df565b5b50565b6000819050611ab382611a91565b919050565b6000611ac382611aa5565b9050919050565b611ad381611ab8565b82525050565b6000610160820190508181036000830152611af4818e611985565b9050611b03602083018d6119d0565b611b10604083018c6119d0565b611b1d606083018b611a47565b611b2a608083018a611a66565b611b3760a0830189611a82565b611b4460c0830188611a66565b611b5160e0830187611a66565b611b5f610100830186611aca565b818103610120830152611b728185611985565b9050818103610140830152611b878184611985565b90509c9b505050505050505050505050565b60078110611ba657600080fd5b50565b600081359050611bb881611b99565b92915050565b611bc781611a56565b8114611bd257600080fd5b50565b600081359050611be481611bbe565b92915050565b611bf381611a75565b8114611bfe57600080fd5b50565b600081359050611c1081611bea565b92915050565b60008060008060008060c08789031215611c3357611c326116da565b5b6000611c4189828a01611ba9565b9650506020611c5289828a01611bd5565b9550506040611c6389828a01611c01565b9450506060611c7489828a01611bd5565b9350506080611c8589828a01611bd5565b92505060a0611c9689828a01611873565b9150509295509295509295565b611cac816119be565b8114611cb757600080fd5b50565b600081359050611cc981611ca3565b92915050565b600060208284031215611ce557611ce46116da565b5b6000611cf384828501611cba565b91505092915050565b60008060408385031215611d1357611d126116da565b5b6000611d2185828601611cba565b9250506020611d3285828601611cba565b9150509250929050565b7f426f6e64206469737075746573206e6f7420796574207265736f6c766564206260008201527f7920616c6c207468652070617274696573000000000000000000000000000000602082015250565b6000611d98603183611941565b9150611da382611d3c565b604082019050919050565b60006020820190508181036000830152611dc781611d8b565b9050919050565b7f426f6e64207465726d73207570646174652069732064697361626c6564000000600082015250565b6000611e04601d83611941565b9150611e0f82611dce565b602082019050919050565b60006020820190508181036000830152611e3381611df7565b9050919050565b7f4f6e6c792074686520626f6e64206973737565722063616e20696e74726f647560008201527f6365206368616e67657300000000000000000000000000000000000000000000602082015250565b6000611e96602a83611941565b9150611ea182611e3a565b604082019050919050565b60006020820190508181036000830152611ec581611e89565b9050919050565b7f426f6e6420616c72656164792066696e616c6973656400000000000000000000600082015250565b6000611f02601683611941565b9150611f0d82611ecc565b602082019050919050565b60006020820190508181036000830152611f3181611ef5565b9050919050565b7f4d697373696e6720626f6e6420686f6c64657220616464726573730000000000600082015250565b6000611f6e601b83611941565b9150611f7982611f38565b602082019050919050565b60006020820190508181036000830152611f9d81611f61565b9050919050565b7f426f6e6420626f6479206669656c6473206d617920636f6e7461696e20656d7060008201527f74792076616c7565730000000000000000000000000000000000000000000000602082015250565b6000612000602983611941565b915061200b82611fa4565b604082019050919050565b6000602082019050818103600083015261202f81611ff3565b9050919050565b7f4e487b7100000000000000000000000000000000000000000000000000000000600052602260045260246000fd5b6000600282049050600182168061207d57607f821691505b6020821081141561209157612090612036565b5b50919050565b7f556e6b6e6f776e20626f6e6420737461747573207369676e657220616464726560008201527f7373207573656400000000000000000000000000000000000000000000000000602082015250565b60006120f3602783611941565b91506120fe82612097565b604082019050919050565b60006020820190508181036000830152612122816120e6565b9050919050565b7f426f6e64206973737565722063616e6e6f742062652074686520686f6c64657260008201527f20746f6f00000000000000000000000000000000000000000000000000000000602082015250565b6000612185602483611941565b915061219082612129565b604082019050919050565b600060208201905081810360008301526121b481612178565b9050919050565b7f4f6e6c792073657420647572696e672074686520486f6c64657253656c65637460008201527f696f6e2073746174757300000000000000000000000000000000000000000000602082015250565b6000612217602a83611941565b9150612222826121bb565b604082019050919050565b600060208201905081810360008301526122468161220a565b9050919050565b7f4e487b7100000000000000000000000000000000000000000000000000000000600052601160045260246000fd5b600061228782611a75565b915061229283611a75565b92508260ff038211156122a8576122a761224d565b5b828201905092915050565b6122bc8161184a565b82525050565b60006040820190506122d760008301856122b3565b6122e46020830184611a82565b9392505050565b600081905092915050565b600061230182611936565b61230b81856122eb565b935061231b818560208601611952565b80840191505092915050565b600061233382846122f6565b91508190509291505056fea26469706673582212208888296534a84d5382de06d6d378dbe34c995cf7cbf98b90289a3e4e8731944d64736f6c634300080a0033",
  "immutableReferences": {},
  "source": "// SPDX-License-Identifier: GPL-3.0\npragma solidity ^0.8.10;\n\n/// @author dmigwi: (migwindungu0@gmail.com) @2023\n/// @title Bond Contract.\ncontract BondContract {\n\n    /// @param StatusChoice describes the various stages a bond must pass through.\n    /// @param Negotiating => Open to the public, potential bond holder can their\n    ///              counter proposal hoping to be selected.\n    /// @param HolderSelection => The issuer select a potential holder from all\n    ///              of those who have expessed interest in taking up the bond.\n    /// @param BondInDispute => signals that a trusted entity between the parties\n    ///                to the bond should lead the meditation process. \n    ///                Once in this stage, all parties involved must approval any\n    ///                further status change.\n    /// @param TermsAgreement => Both the issuer and the selected holder agree\n    ///               on the final terms of the bond. Only the two parties\n    ///               have access to the bond. Security and Appendix section\n    ///               can be added at this stage.\n    /// @param ContractSigned => Once the final version of the terms are agreed, the final\n    ///                 document is hashed with the holders keys. Unless disputes\n    ///                 the bond might spend most of its life time on this status\n    ///                 until its finalised\n    /// @param BondReselling => The bond holder can re-advertise his bond to\n    ///                anyone else.\n    /// @param BondFinalised => The issuer has fulfilled his obligation to pay\n    ///            all the amount in full as agreed on in the terms\n    enum StatusChoice { \n            Negotiating, HolderSelection, BondInDispute, TermsAgreement,\n                ContractSigned, BondReselling, BondFinalised\n        }\n\n    /// @param @param CurrencyType defines the various types of currency types \n    /// supported in the bond declaration.\n    /// @param usd => represents the fiat type.\n    /// @param btc => represents Bitcoin.\n    /// @param eth => represents Ethereum.\n    /// @param etc => represents Ethereum Classic.\n    /// @param xrp => represents Ripple\n    /// @param usdt => represents Tether Coin.\n    /// @param dcr => represents Decred Coin.\n    enum CurrencyType { usd, btc, eth, etc, xrp, usdt, dcr }\n\n    // issuerKey defines the key used to identify data signed by the bond issuer.\n    string issuerKey = \"0x00000000f937\";\n\n    // holderKey defines the key used to identify data signed by the bond holder.\n    string holderKey = \"0x000000017d29\";\n\n    // signedBondStatuses holds the list of all bond statuses signed (approved)\n    // by either of current party to this bond. Signed status to previous parties\n    // are removed immediately they are detected.\n    mapping(bytes32 => uint256) signedBondStatuses;\n\n    // Bond describes the collection of information that make up a bond. \n    struct Bond {\n        // Section: 1 \n        // intro is added by the bond issuer where they describe the motivation\n        // or what they hope  to achieve once the bond is subscribed to.\n        string intro;\n\n        // Section: 2 (body)     \n        // issuer describes the address of the bond issuer. It should always be\n        // set in all bonds.\n        address payable issuer;\n        // holder describes the address of the current bond holder. Once the\n        // bond is resold, the new holder address should be set here.\n        address payable holder;\n        // StatusChoice describes the stages between issuance and completion of\n        // a bond.\n        StatusChoice status;\n        // principal defines the initial amount in the specified currency the\n        // issuer hopes to receive.\n        uint32 principal;\n        // couponRate describes the percentage of the interest the issuer\n        // is willing to pay at the couponDate intervals.\n        uint8 couponRate;\n        // couponDate decribes the interval i.e. monthly, quartely, yearly etc\n        // when the interest is due to be paid to the holder.\n        uint32 couponDate;\n        // maturityDate decribes date when the whole amount owed to the holder\n        // should be cleared/paid in full.\n        uint32 maturityDate;\n        // CurrencyType describes the currency which the bond issue and holder\n        // wishes to transact in.\n        CurrencyType currency;\n\n        // Section: 3\n        // security describe some collataral or a form of a legal action a bond\n        // holder can institute against the issuer should, money in the agreed\n        // amount fail to get to him at the expected date. \n        // Only exposed to the bond issuer and holder only\n        string security;\n\n        // Section: 4\n        // appendix describes any other information including details on how the\n        // bond issuer and holder should make financial with each other.\n        string appendix;\n    }\n\n    Bond public bond;\n\n    // Once created the issuer address cannot be changed. Accepts a sender address\n    // because the default msg.sender points to the caller contract.\n    constructor(address _sender) {\n        bond.issuer = payable(_sender);\n        bond.status = StatusChoice.Negotiating;\n    }\n\n    // onlyIssuerAllowed restricts bond changes edits to only the issuer.\n    modifier onlyIssuerAllowed(address _sender) {\n       require (\n            _sender == bond.issuer,\n            \"Only the bond issuer can introduce changes\"\n        );\n        _;\n    }\n\n    // bondAlreadyFinalised checks if checks if the Bond has been finalised. \n    // Once finalised no more changes are accepted.\n    modifier bondAlreadyFinalised {\n        require(\n            bond.status != StatusChoice.BondFinalised,\n            \"Bond already finalised\"\n        );\n        _;\n    }\n\n    // bondDetailsInDispute checks if the current bond is being disputed between\n    // the parties involved. This prevents further actions on the bond until\n    // they reconcile by signing the BondInDispute status.\n    modifier bondDetailsInDispute {\n        require(\n            !(bond.status == StatusChoice.BondInDispute && !signaturesExists()),\n            \"Bond disputes not yet resolved by all the parties\"\n        );\n        _;\n    }\n\n    // termsUpdateDisabled prevents further terms edit since the version of the\n    // terms have been agreed upon.\n    // Terms only possible fully or partially only on this bond statuses only:\n    // Negotiating, HolderSelection, BondInDispute, TermsAgreement\n    modifier termsUpdateDisabled {\n        require(\n            uint(bond.status) <= uint(BondContract.StatusChoice.TermsAgreement),\n            \"Bond terms update is disabled\"\n        );\n        _;\n    }\n\n    // setBodyInfo updates the body information. Only the bond issuer can make\n    // this change. \n    function setBodyInfo(\n        CurrencyType _currency, uint32 _principal, uint8 _couponRate,\n        uint32 _couponDate, uint32 _maturityDate, address _sender\n    ) public onlyIssuerAllowed(_sender) bondDetailsInDispute termsUpdateDisabled {\n        bond.currency = _currency;\n        bond.principal = _principal;\n        bond.couponRate = _couponRate;\n        bond.couponDate = _couponDate;\n        bond.maturityDate = _maturityDate;\n    }\n\n    // setStatus sets the bond status. Can be triggered by both the issuer and the\n    // the holder.\n    function setStatus(StatusChoice _status) public bondDetailsInDispute bondAlreadyFinalised {\n        // past the negotiating stage, a holder must be set.\n        require(\n            !(uint8(_status) > uint8(StatusChoice.HolderSelection) && bond.holder == address(0)), \n            \"Missing bond holder address\"\n        );\n\n        // past holder selection stage, all bond body information must be set. \n        require(\n            !(uint8(_status) > uint8(StatusChoice.HolderSelection) && isAnyBondBodyFieldEmpty()),\n            \"Bond body fields may contain empty values\"\n        );\n\n        // removes the previous signatures if they existed.\n        if (_status == StatusChoice.BondInDispute) {\n            deleteSignatures();\n        }\n       \n        bond.status = _status;\n    }\n\n    // setBondHolder sets the bond holder after negotiations are complete.\n    // Once selected, the bond issuer cannot replace the holder. \n    // only the bond issuer can select a bond holder from the interested people.\n    function setBondHolder(\n        address payable _holder, address payable _sender\n    ) public bondDetailsInDispute onlyIssuerAllowed(_sender) {\n        require(bond.issuer != _holder, \"Bond issuer cannot be the holder too\");\n\n        require(\n            uint8(bond.status) == uint8(StatusChoice.HolderSelection), \n            \"Only set during the HolderSelection status\"\n        );\n\n        bond.holder = _holder;\n    }\n\n    // setIntro sets the introduction description. Only the issuer can do this.\n    function setIntro(\n        string memory _intro, address _sender\n    ) public bondDetailsInDispute termsUpdateDisabled onlyIssuerAllowed(_sender) {\n        bond.intro = _intro;\n    }\n\n    // setSecurity sets the security information. Only the issuer can do this. \n    function setSecurity(\n        string memory _security, address _sender\n    ) public bondDetailsInDispute termsUpdateDisabled onlyIssuerAllowed(_sender) {\n        bond.security = _security;\n    }\n\n    // setAppendix sets the Appendix information. Only the issuer can do this.\n    function setAppendix(\n        string memory _appendix, address _sender\n    ) public bondDetailsInDispute termsUpdateDisabled onlyIssuerAllowed(_sender) {\n        bond.appendix = _appendix;\n    }\n\n    // isAnyBondBodyFieldEmpty returns true if either of; principal, couponRate,\n    // couponDate or maturityDate are empty.\n    function isAnyBondBodyFieldEmpty() internal view  returns (bool) {\n        return bond.principal == 0 || bond.couponRate == 0 ||\n            bond.couponDate == 0 || bond.maturityDate == 0;\n    }\n\n    // signBondStatus returns the signed status by the sender. Can only be called \n    // from outside this contract since it sets the signed status signature \n    // against its block timestamp.\n    function signBondStatus(address payable _sender) external {\n         require (\n            _sender == bond.issuer || _sender == bond.holder,\n            \"Unknown bond status signer address used\"\n        );\n\n        bytes32 signature = bondStatusSignature(_sender, bond.status);\n        signedBondStatuses[signature] = block.timestamp;\n    }\n\n    // bondStatusSignature does the actual status signing. Can only be accessed from\n    // this contract.\n    function bondStatusSignature(address _sender, StatusChoice _status) internal view returns (bytes32) {\n         string memory encodingKey = \"\";\n        if (_sender == bond.issuer) {\n            encodingKey = issuerKey;\n        } else {\n            encodingKey = holderKey;\n        }\n\n        return keccak256(abi.encodeWithSignature(encodingKey, _sender, uint8(_status)+1));\n    }\n\n    // signaturesExists confirms if the required bond status has been signed\n    // by all the parties involved.\n    function signaturesExists() view internal returns (bool) {\n        bytes32 issuerSignature = bondStatusSignature(bond.issuer, bond.status);\n        bytes32 holderSignature = bondStatusSignature(bond.holder, bond.status);\n\n        uint256 issuerSigningTime = signedBondStatuses[issuerSignature];\n        uint256 holderSigningTime = signedBondStatuses[holderSignature];\n\n        return issuerSigningTime > 0 && holderSigningTime > 0;\n    }\n\n    // deleteSignatures removes the previous signatures so that fresh ones\n    // can be added. \n    function deleteSignatures() internal {\n        bytes32 issuerSignature = bondStatusSignature(bond.issuer, bond.status);\n        bytes32 holderSignature = bondStatusSignature(bond.holder, bond.status);\n\n        signedBondStatuses[issuerSignature] = 0;\n        signedBondStatuses[holderSignature] = 0;\n    }\n}",
  "sourcePath": "/home/dmigwi/work/app/golang/src/github.com/dmigwi/dhamana-protocol/contracts/bond.sol",
  "compiler": {
    "name": "solc",
    "version": "0.8.10+commit.fc410830.Emscripten.clang"
  },
  "schemaVersion": "3.4.14",
  "updatedAt": "2023-07-30T20:32:19.665Z",
  "devdoc": {
    "author": "dmigwi: (migwindungu0@gmail.com) @2023",
    "kind": "dev",
    "methods": {},
    "title": "Bond Contract.",
    "version": 1
  },
  "userdoc": {
    "kind": "user",
    "methods": {},
    "version": 1
  }
}