{
  "contractName": "BondContract",
  "abi": [
    {
      "inputs": [
        {
          "internalType": "address",
          "name": "_sender",
          "type": "address"
        }
      ],
      "stateMutability": "nonpayable",
      "type": "constructor"
    },
    {
      "inputs": [],
      "name": "bond",
      "outputs": [
        {
          "internalType": "string",
          "name": "intro",
          "type": "string"
        },
        {
          "internalType": "address payable",
          "name": "issuer",
          "type": "address"
        },
        {
          "internalType": "address payable",
          "name": "holder",
          "type": "address"
        },
        {
          "internalType": "enum BondContract.StatusChoice",
          "name": "status",
          "type": "uint8"
        },
        {
          "internalType": "uint32",
          "name": "principal",
          "type": "uint32"
        },
        {
          "internalType": "uint8",
          "name": "couponRate",
          "type": "uint8"
        },
        {
          "internalType": "uint32",
          "name": "couponDate",
          "type": "uint32"
        },
        {
          "internalType": "uint32",
          "name": "maturityDate",
          "type": "uint32"
        },
        {
          "internalType": "enum BondContract.CurrencyType",
          "name": "currency",
          "type": "uint8"
        },
        {
          "internalType": "string",
          "name": "security",
          "type": "string"
        },
        {
          "internalType": "string",
          "name": "appendix",
          "type": "string"
        }
      ],
      "stateMutability": "view",
      "type": "function"
    },
    {
      "inputs": [],
      "name": "getBond",
      "outputs": [
        {
          "components": [
            {
              "internalType": "string",
              "name": "intro",
              "type": "string"
            },
            {
              "internalType": "address payable",
              "name": "issuer",
              "type": "address"
            },
            {
              "internalType": "address payable",
              "name": "holder",
              "type": "address"
            },
            {
              "internalType": "enum BondContract.StatusChoice",
              "name": "status",
              "type": "uint8"
            },
            {
              "internalType": "uint32",
              "name": "principal",
              "type": "uint32"
            },
            {
              "internalType": "uint8",
              "name": "couponRate",
              "type": "uint8"
            },
            {
              "internalType": "uint32",
              "name": "couponDate",
              "type": "uint32"
            },
            {
              "internalType": "uint32",
              "name": "maturityDate",
              "type": "uint32"
            },
            {
              "internalType": "enum BondContract.CurrencyType",
              "name": "currency",
              "type": "uint8"
            },
            {
              "internalType": "string",
              "name": "security",
              "type": "string"
            },
            {
              "internalType": "string",
              "name": "appendix",
              "type": "string"
            }
          ],
          "internalType": "struct BondContract.Bond",
          "name": "",
          "type": "tuple"
        }
      ],
      "stateMutability": "view",
      "type": "function"
    },
    {
      "inputs": [
        {
          "internalType": "enum BondContract.CurrencyType",
          "name": "_currency",
          "type": "uint8"
        },
        {
          "internalType": "uint32",
          "name": "_principal",
          "type": "uint32"
        },
        {
          "internalType": "uint8",
          "name": "_couponRate",
          "type": "uint8"
        },
        {
          "internalType": "uint32",
          "name": "_couponDate",
          "type": "uint32"
        },
        {
          "internalType": "uint32",
          "name": "_maturityDate",
          "type": "uint32"
        },
        {
          "internalType": "address",
          "name": "_sender",
          "type": "address"
        }
      ],
      "name": "setBodyInfo",
      "outputs": [],
      "stateMutability": "nonpayable",
      "type": "function"
    },
    {
      "inputs": [
        {
          "internalType": "enum BondContract.StatusChoice",
          "name": "_status",
          "type": "uint8"
        }
      ],
      "name": "setStatus",
      "outputs": [],
      "stateMutability": "nonpayable",
      "type": "function"
    },
    {
      "inputs": [
        {
          "internalType": "address payable",
          "name": "_holder",
          "type": "address"
        },
        {
          "internalType": "address payable",
          "name": "_sender",
          "type": "address"
        }
      ],
      "name": "setBondHolder",
      "outputs": [],
      "stateMutability": "nonpayable",
      "type": "function"
    },
    {
      "inputs": [
        {
          "internalType": "string",
          "name": "_intro",
          "type": "string"
        },
        {
          "internalType": "address",
          "name": "_sender",
          "type": "address"
        }
      ],
      "name": "setIntro",
      "outputs": [],
      "stateMutability": "nonpayable",
      "type": "function"
    },
    {
      "inputs": [
        {
          "internalType": "string",
          "name": "_security",
          "type": "string"
        },
        {
          "internalType": "address",
          "name": "_sender",
          "type": "address"
        }
      ],
      "name": "setSecurity",
      "outputs": [],
      "stateMutability": "nonpayable",
      "type": "function"
    },
    {
      "inputs": [
        {
          "internalType": "string",
          "name": "_appendix",
          "type": "string"
        },
        {
          "internalType": "address",
          "name": "_sender",
          "type": "address"
        }
      ],
      "name": "setAppendix",
      "outputs": [],
      "stateMutability": "nonpayable",
      "type": "function"
    },
    {
      "inputs": [
        {
          "internalType": "address payable",
          "name": "_sender",
          "type": "address"
        }
      ],
      "name": "signBondStatus",
      "outputs": [],
      "stateMutability": "nonpayable",
      "type": "function"
    }
  ],
  "bytecode": "0x60806040526040518060400160405280600e81526020017f307830303030303030306639333700000000000000000000000000000000000081525060009080519060200190620000519291906200014f565b506040518060400160405280600e81526020017f3078303030303030303137643239000000000000000000000000000000000000815250600190805190602001906200009f9291906200014f565b50348015620000ad57600080fd5b5060405162002e4538038062002e458339818101604052810190620000d3919062000269565b80600360010160006101000a81548173ffffffffffffffffffffffffffffffffffffffff021916908373ffffffffffffffffffffffffffffffffffffffff1602179055506000600360020160146101000a81548160ff021916908360068111156200014357620001426200029b565b5b0217905550506200032e565b8280546200015d90620002f9565b90600052602060002090601f016020900481019282620001815760008555620001cd565b82601f106200019c57805160ff1916838001178555620001cd565b82800160010185558215620001cd579182015b82811115620001cc578251825591602001919060010190620001af565b5b509050620001dc9190620001e0565b5090565b5b80821115620001fb576000816000905550600101620001e1565b5090565b600080fd5b600073ffffffffffffffffffffffffffffffffffffffff82169050919050565b6000620002318262000204565b9050919050565b620002438162000224565b81146200024f57600080fd5b50565b600081519050620002638162000238565b92915050565b600060208284031215620002825762000281620001ff565b5b6000620002928482850162000252565b91505092915050565b7f4e487b7100000000000000000000000000000000000000000000000000000000600052602160045260246000fd5b7f4e487b7100000000000000000000000000000000000000000000000000000000600052602260045260246000fd5b600060028204905060018216806200031257607f821691505b602082108103620003285762000327620002ca565b5b50919050565b612b07806200033e6000396000f3fe608060405234801561001057600080fd5b50600436106100935760003560e01c80638ec13d50116100665780638ec13d5014610114578063a01694a214610130578063ac9824721461014c578063d41369221461016a578063db3d57a71461018657610093565b8063083aea57146100985780632e49d78b146100b457806364c9ec6f146100d057806382626343146100f8575b600080fd5b6100b260048036038101906100ad9190611dd6565b6101a2565b005b6100ce60048036038101906100c99190611e57565b61035a565b005b6100d86106f3565b6040516100ef9b9a99989796959493929190612027565b60405180910390f35b610112600480360381019061010d9190612164565b61096a565b005b61012e6004803603810190610129919061221d565b610bc1565b005b61014a60048036038101906101459190611dd6565b610ceb565b005b610154610ea3565b60405161016191906123dc565b60405180910390f35b610184600480360381019061017f91906123fe565b611225565b005b6101a0600480360381019061019b9190611dd6565b61149f565b005b600260068111156101b6576101b5611f2d565b5b600360020160149054906101000a900460ff1660068111156101db576101da611f2d565b5b1480156101ed57506101eb611657565b155b1561022d576040517f08c379a0000000000000000000000000000000000000000000000000000000008152600401610224906124b0565b60405180910390fd5b6003600681111561024157610240611f2d565b5b600360020160149054906101000a900460ff16600681111561026657610265611f2d565b5b11156102a7576040517f08c379a000000000000000000000000000000000000000000000000000000000815260040161029e9061251c565b60405180910390fd5b80600360010160009054906101000a900473ffffffffffffffffffffffffffffffffffffffff1673ffffffffffffffffffffffffffffffffffffffff168173ffffffffffffffffffffffffffffffffffffffff161461033b576040517f08c379a0000000000000000000000000000000000000000000000000000000008152600401610332906125ae565b60405180910390fd5b8260036004019080519060200190610354929190611abc565b50505050565b6002600681111561036e5761036d611f2d565b5b600360020160149054906101000a900460ff16600681111561039357610392611f2d565b5b1480156103a557506103a3611657565b155b156103e5576040517f08c379a00000000000000000000000000000000000000000000000000000000081526004016103dc906124b0565b60405180910390fd5b6006808111156103f8576103f7611f2d565b5b600360020160149054906101000a900460ff16600681111561041d5761041c611f2d565b5b0361045d576040517f08c379a00000000000000000000000000000000000000000000000000000000081526004016104549061261a565b60405180910390fd5b6001600681111561047157610470611f2d565b5b60ff1681600681111561048757610486611f2d565b5b60ff161180156104e85750600073ffffffffffffffffffffffffffffffffffffffff16600360020160009054906101000a900473ffffffffffffffffffffffffffffffffffffffff1673ffffffffffffffffffffffffffffffffffffffff16145b15610528576040517f08c379a000000000000000000000000000000000000000000000000000000000815260040161051f90612686565b60405180910390fd5b6001600681111561053c5761053b611f2d565b5b60ff1681600681111561055257610551611f2d565b5b60ff16118015610566575061056561172b565b5b156105a6576040517f08c379a000000000000000000000000000000000000000000000000000000000815260040161059d90612718565b60405180910390fd5b600460068111156105ba576105b9611f2d565b5b8160068111156105cd576105cc611f2d565b5b0361065e57600360068111156105e6576105e5611f2d565b5b600360020160149054906101000a900460ff16600681111561060b5761060a611f2d565b5b14801561061d575061061b611657565b155b1561065d576040517f08c379a0000000000000000000000000000000000000000000000000000000008152600401610654906127aa565b60405180910390fd5b5b6002600681111561067257610671611f2d565b5b81600681111561068557610684611f2d565b5b14806106b55750600360068111156106a05761069f611f2d565b5b8160068111156106b3576106b2611f2d565b5b145b156106c3576106c26117bb565b5b80600360020160146101000a81548160ff021916908360068111156106eb576106ea611f2d565b5b021790555050565b6003806000018054610704906127f9565b80601f0160208091040260200160405190810160405280929190818152602001828054610730906127f9565b801561077d5780601f106107525761010080835404028352916020019161077d565b820191906000526020600020905b81548152906001019060200180831161076057829003601f168201915b5050505050908060010160009054906101000a900473ffffffffffffffffffffffffffffffffffffffff16908060020160009054906101000a900473ffffffffffffffffffffffffffffffffffffffff16908060020160149054906101000a900460ff16908060020160159054906101000a900463ffffffff16908060020160199054906101000a900460ff169080600201601a9054906101000a900463ffffffff16908060030160009054906101000a900463ffffffff16908060030160049054906101000a900460ff1690806004018054610859906127f9565b80601f0160208091040260200160405190810160405280929190818152602001828054610885906127f9565b80156108d25780601f106108a7576101008083540402835291602001916108d2565b820191906000526020600020905b8154815290600101906020018083116108b557829003601f168201915b5050505050908060050180546108e7906127f9565b80601f0160208091040260200160405190810160405280929190818152602001828054610913906127f9565b80156109605780601f1061093557610100808354040283529160200191610960565b820191906000526020600020905b81548152906001019060200180831161094357829003601f168201915b505050505090508b565b80600360010160009054906101000a900473ffffffffffffffffffffffffffffffffffffffff1673ffffffffffffffffffffffffffffffffffffffff168173ffffffffffffffffffffffffffffffffffffffff16146109fe576040517f08c379a00000000000000000000000000000000000000000000000000000000081526004016109f5906125ae565b60405180910390fd5b60026006811115610a1257610a11611f2d565b5b600360020160149054906101000a900460ff166006811115610a3757610a36611f2d565b5b148015610a495750610a47611657565b155b15610a89576040517f08c379a0000000000000000000000000000000000000000000000000000000008152600401610a80906124b0565b60405180910390fd5b60036006811115610a9d57610a9c611f2d565b5b600360020160149054906101000a900460ff166006811115610ac257610ac1611f2d565b5b1115610b03576040517f08c379a0000000000000000000000000000000000000000000000000000000008152600401610afa9061251c565b60405180910390fd5b866003800160046101000a81548160ff02191690836006811115610b2a57610b29611f2d565b5b021790555085600360020160156101000a81548163ffffffff021916908363ffffffff16021790555084600360020160196101000a81548160ff021916908360ff160217905550836003600201601a6101000a81548163ffffffff021916908363ffffffff160217905550826003800160006101000a81548163ffffffff021916908363ffffffff16021790555050505050505050565b600360010160009054906101000a900473ffffffffffffffffffffffffffffffffffffffff1673ffffffffffffffffffffffffffffffffffffffff168173ffffffffffffffffffffffffffffffffffffffff161480610c705750600360020160009054906101000a900473ffffffffffffffffffffffffffffffffffffffff1673ffffffffffffffffffffffffffffffffffffffff168173ffffffffffffffffffffffffffffffffffffffff16145b610caf576040517f08c379a0000000000000000000000000000000000000000000000000000000008152600401610ca69061289c565b60405180910390fd5b6000610ccd82600360020160149054906101000a900460ff1661187b565b90504260026000838152602001908152602001600020819055505050565b60026006811115610cff57610cfe611f2d565b5b600360020160149054906101000a900460ff166006811115610d2457610d23611f2d565b5b148015610d365750610d34611657565b155b15610d76576040517f08c379a0000000000000000000000000000000000000000000000000000000008152600401610d6d906124b0565b60405180910390fd5b60036006811115610d8a57610d89611f2d565b5b600360020160149054906101000a900460ff166006811115610daf57610dae611f2d565b5b1115610df0576040517f08c379a0000000000000000000000000000000000000000000000000000000008152600401610de79061251c565b60405180910390fd5b80600360010160009054906101000a900473ffffffffffffffffffffffffffffffffffffffff1673ffffffffffffffffffffffffffffffffffffffff168173ffffffffffffffffffffffffffffffffffffffff1614610e84576040517f08c379a0000000000000000000000000000000000000000000000000000000008152600401610e7b906125ae565b60405180910390fd5b8260036005019080519060200190610e9d929190611abc565b50505050565b610eab611b42565b600360405180610160016040529081600082018054610ec9906127f9565b80601f0160208091040260200160405190810160405280929190818152602001828054610ef5906127f9565b8015610f425780601f10610f1757610100808354040283529160200191610f42565b820191906000526020600020905b815481529060010190602001808311610f2557829003601f168201915b505050505081526020016001820160009054906101000a900473ffffffffffffffffffffffffffffffffffffffff1673ffffffffffffffffffffffffffffffffffffffff1673ffffffffffffffffffffffffffffffffffffffff1681526020016002820160009054906101000a900473ffffffffffffffffffffffffffffffffffffffff1673ffffffffffffffffffffffffffffffffffffffff1673ffffffffffffffffffffffffffffffffffffffff1681526020016002820160149054906101000a900460ff16600681111561101c5761101b611f2d565b5b600681111561102e5761102d611f2d565b5b81526020016002820160159054906101000a900463ffffffff1663ffffffff1663ffffffff1681526020016002820160199054906101000a900460ff1660ff1660ff16815260200160028201601a9054906101000a900463ffffffff1663ffffffff1663ffffffff1681526020016003820160009054906101000a900463ffffffff1663ffffffff1663ffffffff1681526020016003820160049054906101000a900460ff1660068111156110e6576110e5611f2d565b5b60068111156110f8576110f7611f2d565b5b815260200160048201805461110c906127f9565b80601f0160208091040260200160405190810160405280929190818152602001828054611138906127f9565b80156111855780601f1061115a57610100808354040283529160200191611185565b820191906000526020600020905b81548152906001019060200180831161116857829003601f168201915b5050505050815260200160058201805461119e906127f9565b80601f01602080910402602001604051908101604052809291908181526020018280546111ca906127f9565b80156112175780601f106111ec57610100808354040283529160200191611217565b820191906000526020600020905b8154815290600101906020018083116111fa57829003601f168201915b505050505081525050905090565b6002600681111561123957611238611f2d565b5b600360020160149054906101000a900460ff16600681111561125e5761125d611f2d565b5b148015611270575061126e611657565b155b156112b0576040517f08c379a00000000000000000000000000000000000000000000000000000000081526004016112a7906124b0565b60405180910390fd5b80600360010160009054906101000a900473ffffffffffffffffffffffffffffffffffffffff1673ffffffffffffffffffffffffffffffffffffffff168173ffffffffffffffffffffffffffffffffffffffff1614611344576040517f08c379a000000000000000000000000000000000000000000000000000000000815260040161133b906125ae565b60405180910390fd5b8273ffffffffffffffffffffffffffffffffffffffff16600360010160009054906101000a900473ffffffffffffffffffffffffffffffffffffffff1673ffffffffffffffffffffffffffffffffffffffff16036113d7576040517f08c379a00000000000000000000000000000000000000000000000000000000081526004016113ce9061292e565b60405180910390fd5b600160068111156113eb576113ea611f2d565b5b60ff16600360020160149054906101000a900460ff16600681111561141357611412611f2d565b5b60ff1614611456576040517f08c379a000000000000000000000000000000000000000000000000000000000815260040161144d906129c0565b60405180910390fd5b82600360020160006101000a81548173ffffffffffffffffffffffffffffffffffffffff021916908373ffffffffffffffffffffffffffffffffffffffff160217905550505050565b600260068111156114b3576114b2611f2d565b5b600360020160149054906101000a900460ff1660068111156114d8576114d7611f2d565b5b1480156114ea57506114e8611657565b155b1561152a576040517f08c379a0000000000000000000000000000000000000000000000000000000008152600401611521906124b0565b60405180910390fd5b6003600681111561153e5761153d611f2d565b5b600360020160149054906101000a900460ff16600681111561156357611562611f2d565b5b11156115a4576040517f08c379a000000000000000000000000000000000000000000000000000000000815260040161159b9061251c565b60405180910390fd5b80600360010160009054906101000a900473ffffffffffffffffffffffffffffffffffffffff1673ffffffffffffffffffffffffffffffffffffffff168173ffffffffffffffffffffffffffffffffffffffff1614611638576040517f08c379a000000000000000000000000000000000000000000000000000000000815260040161162f906125ae565b60405180910390fd5b8260036000019080519060200190611651929190611abc565b50505050565b60008061169b600360010160009054906101000a900473ffffffffffffffffffffffffffffffffffffffff16600360020160149054906101000a900460ff1661187b565b905060006116e0600360020160009054906101000a900473ffffffffffffffffffffffffffffffffffffffff16600360020160149054906101000a900460ff1661187b565b90506000600260008481526020019081526020016000205490506000600260008481526020019081526020016000205490506000821180156117225750600081115b94505050505090565b600080600360020160159054906101000a900463ffffffff1663ffffffff16148061176b57506000600360020160199054906101000a900460ff1660ff16145b80611791575060006003600201601a9054906101000a900463ffffffff1663ffffffff16145b806117b6575060006003800160009054906101000a900463ffffffff1663ffffffff16145b905090565b60006117fe600360010160009054906101000a900473ffffffffffffffffffffffffffffffffffffffff16600360020160149054906101000a900460ff1661187b565b90506000611843600360020160009054906101000a900473ffffffffffffffffffffffffffffffffffffffff16600360020160149054906101000a900460ff1661187b565b905060006002600084815260200190815260200160002081905550600060026000838152602001908152602001600020819055505050565b600080604051806020016040528060008152509050600360010160009054906101000a900473ffffffffffffffffffffffffffffffffffffffff1673ffffffffffffffffffffffffffffffffffffffff168473ffffffffffffffffffffffffffffffffffffffff160361197a57600080546118f5906127f9565b80601f0160208091040260200160405190810160405280929190818152602001828054611921906127f9565b801561196e5780601f106119435761010080835404028352916020019161196e565b820191906000526020600020905b81548152906001019060200180831161195157829003601f168201915b50505050509050611a08565b60018054611987906127f9565b80601f01602080910402602001604051908101604052809291908181526020018280546119b3906127f9565b8015611a005780601f106119d557610100808354040283529160200191611a00565b820191906000526020600020905b8154815290600101906020018083116119e357829003601f168201915b505050505090505b80846001856006811115611a1f57611a1e611f2d565b5b611a299190612a0f565b604051602401611a3a929190612a55565b60405160208183030381529060405290604051611a579190612aba565b60405180910390207bffffffffffffffffffffffffffffffffffffffffffffffffffffffff19166020820180517bffffffffffffffffffffffffffffffffffffffffffffffffffffffff83818316178352505050508051906020012091505092915050565b828054611ac8906127f9565b90600052602060002090601f016020900481019282611aea5760008555611b31565b82601f10611b0357805160ff1916838001178555611b31565b82800160010185558215611b31579182015b82811115611b30578251825591602001919060010190611b15565b5b509050611b3e9190611c01565b5090565b60405180610160016040528060608152602001600073ffffffffffffffffffffffffffffffffffffffff168152602001600073ffffffffffffffffffffffffffffffffffffffff16815260200160006006811115611ba357611ba2611f2d565b5b8152602001600063ffffffff168152602001600060ff168152602001600063ffffffff168152602001600063ffffffff16815260200160006006811115611bed57611bec611f2d565b5b815260200160608152602001606081525090565b5b80821115611c1a576000816000905550600101611c02565b5090565b6000604051905090565b600080fd5b600080fd5b600080fd5b600080fd5b6000601f19601f8301169050919050565b7f4e487b7100000000000000000000000000000000000000000000000000000000600052604160045260246000fd5b611c8582611c3c565b810181811067ffffffffffffffff82111715611ca457611ca3611c4d565b5b80604052505050565b6000611cb7611c1e565b9050611cc38282611c7c565b919050565b600067ffffffffffffffff821115611ce357611ce2611c4d565b5b611cec82611c3c565b9050602081019050919050565b82818337600083830152505050565b6000611d1b611d1684611cc8565b611cad565b905082815260208101848484011115611d3757611d36611c37565b5b611d42848285611cf9565b509392505050565b600082601f830112611d5f57611d5e611c32565b5b8135611d6f848260208601611d08565b91505092915050565b600073ffffffffffffffffffffffffffffffffffffffff82169050919050565b6000611da382611d78565b9050919050565b611db381611d98565b8114611dbe57600080fd5b50565b600081359050611dd081611daa565b92915050565b60008060408385031215611ded57611dec611c28565b5b600083013567ffffffffffffffff811115611e0b57611e0a611c2d565b5b611e1785828601611d4a565b9250506020611e2885828601611dc1565b9150509250929050565b60078110611e3f57600080fd5b50565b600081359050611e5181611e32565b92915050565b600060208284031215611e6d57611e6c611c28565b5b6000611e7b84828501611e42565b91505092915050565b600081519050919050565b600082825260208201905092915050565b60005b83811015611ebe578082015181840152602081019050611ea3565b83811115611ecd576000848401525b50505050565b6000611ede82611e84565b611ee88185611e8f565b9350611ef8818560208601611ea0565b611f0181611c3c565b840191505092915050565b6000611f1782611d78565b9050919050565b611f2781611f0c565b82525050565b7f4e487b7100000000000000000000000000000000000000000000000000000000600052602160045260246000fd5b60078110611f6d57611f6c611f2d565b5b50565b6000819050611f7e82611f5c565b919050565b6000611f8e82611f70565b9050919050565b611f9e81611f83565b82525050565b600063ffffffff82169050919050565b611fbd81611fa4565b82525050565b600060ff82169050919050565b611fd981611fc3565b82525050565b60078110611ff057611fef611f2d565b5b50565b600081905061200182611fdf565b919050565b600061201182611ff3565b9050919050565b61202181612006565b82525050565b6000610160820190508181036000830152612042818e611ed3565b9050612051602083018d611f1e565b61205e604083018c611f1e565b61206b606083018b611f95565b612078608083018a611fb4565b61208560a0830189611fd0565b61209260c0830188611fb4565b61209f60e0830187611fb4565b6120ad610100830186612018565b8181036101208301526120c08185611ed3565b90508181036101408301526120d58184611ed3565b90509c9b505050505050505050505050565b600781106120f457600080fd5b50565b600081359050612106816120e7565b92915050565b61211581611fa4565b811461212057600080fd5b50565b6000813590506121328161210c565b92915050565b61214181611fc3565b811461214c57600080fd5b50565b60008135905061215e81612138565b92915050565b60008060008060008060c0878903121561218157612180611c28565b5b600061218f89828a016120f7565b96505060206121a089828a01612123565b95505060406121b189828a0161214f565b94505060606121c289828a01612123565b93505060806121d389828a01612123565b92505060a06121e489828a01611dc1565b9150509295509295509295565b6121fa81611f0c565b811461220557600080fd5b50565b600081359050612217816121f1565b92915050565b60006020828403121561223357612232611c28565b5b600061224184828501612208565b91505092915050565b600082825260208201905092915050565b600061226682611e84565b612270818561224a565b9350612280818560208601611ea0565b61228981611c3c565b840191505092915050565b61229d81611f0c565b82525050565b6122ac81611f83565b82525050565b6122bb81611fa4565b82525050565b6122ca81611fc3565b82525050565b6122d981612006565b82525050565b60006101608301600083015184820360008601526122fd828261225b565b91505060208301516123126020860182612294565b5060408301516123256040860182612294565b50606083015161233860608601826122a3565b50608083015161234b60808601826122b2565b5060a083015161235e60a08601826122c1565b5060c083015161237160c08601826122b2565b5060e083015161238460e08601826122b2565b506101008301516123996101008601826122d0565b506101208301518482036101208601526123b3828261225b565b9150506101408301518482036101408601526123cf828261225b565b9150508091505092915050565b600060208201905081810360008301526123f681846122df565b905092915050565b6000806040838503121561241557612414611c28565b5b600061242385828601612208565b925050602061243485828601612208565b9150509250929050565b7f426f6e64206469737075746573206e6f7420796574207265736f6c766564206260008201527f7920616c6c207468652070617274696573000000000000000000000000000000602082015250565b600061249a603183611e8f565b91506124a58261243e565b604082019050919050565b600060208201905081810360008301526124c98161248d565b9050919050565b7f426f6e64207465726d73207570646174652069732064697361626c6564000000600082015250565b6000612506601d83611e8f565b9150612511826124d0565b602082019050919050565b60006020820190508181036000830152612535816124f9565b9050919050565b7f4f6e6c792074686520626f6e64206973737565722063616e20696e74726f647560008201527f6365206368616e67657300000000000000000000000000000000000000000000602082015250565b6000612598602a83611e8f565b91506125a38261253c565b604082019050919050565b600060208201905081810360008301526125c78161258b565b9050919050565b7f426f6e6420616c72656164792066696e616c6973656400000000000000000000600082015250565b6000612604601683611e8f565b915061260f826125ce565b602082019050919050565b60006020820190508181036000830152612633816125f7565b9050919050565b7f4d697373696e6720626f6e6420686f6c64657220616464726573730000000000600082015250565b6000612670601b83611e8f565b915061267b8261263a565b602082019050919050565b6000602082019050818103600083015261269f81612663565b9050919050565b7f426f6e6420626f6479206669656c6473206d617920636f6e7461696e20656d7060008201527f74792076616c7565730000000000000000000000000000000000000000000000602082015250565b6000612702602983611e8f565b915061270d826126a6565b604082019050919050565b60006020820190508181036000830152612731816126f5565b9050919050565b7f5465726d7341677265656d656e74206d757374206265207369676e656420626560008201527f666f72652073657474696e6720436f6e74726163745369676e65640000000000602082015250565b6000612794603b83611e8f565b915061279f82612738565b604082019050919050565b600060208201905081810360008301526127c381612787565b9050919050565b7f4e487b7100000000000000000000000000000000000000000000000000000000600052602260045260246000fd5b6000600282049050600182168061281157607f821691505b602082108103612824576128236127ca565b5b50919050565b7f556e6b6e6f776e20626f6e6420737461747573207369676e657220616464726560008201527f7373207573656400000000000000000000000000000000000000000000000000602082015250565b6000612886602783611e8f565b91506128918261282a565b604082019050919050565b600060208201905081810360008301526128b581612879565b9050919050565b7f426f6e64206973737565722063616e6e6f742062652074686520686f6c64657260008201527f20746f6f00000000000000000000000000000000000000000000000000000000602082015250565b6000612918602483611e8f565b9150612923826128bc565b604082019050919050565b600060208201905081810360008301526129478161290b565b9050919050565b7f4f6e6c792073657420647572696e672074686520486f6c64657253656c65637460008201527f696f6e2073746174757300000000000000000000000000000000000000000000602082015250565b60006129aa602a83611e8f565b91506129b58261294e565b604082019050919050565b600060208201905081810360008301526129d98161299d565b9050919050565b7f4e487b7100000000000000000000000000000000000000000000000000000000600052601160045260246000fd5b6000612a1a82611fc3565b9150612a2583611fc3565b92508260ff03821115612a3b57612a3a6129e0565b5b828201905092915050565b612a4f81611d98565b82525050565b6000604082019050612a6a6000830185612a46565b612a776020830184611fd0565b9392505050565b600081905092915050565b6000612a9482611e84565b612a9e8185612a7e565b9350612aae818560208601611ea0565b80840191505092915050565b6000612ac68284612a89565b91508190509291505056fea2646970667358221220b11aac9cdf37de5f76df4ca4b297b5de94b5d345741f6d1a60a95577829f747164736f6c634300080d0033",
  "immutableReferences": {},
  "source": "// SPDX-License-Identifier: ISC\npragma solidity ^0.8.13;\n\n/// @author dmigwi: (migwindungu0@gmail.com) @2023\n/// @title Bond Contract.\ncontract BondContract {\n\n    /// @param StatusChoice describes the various stages a bond must pass through.\n    /// @param Negotiating => Open to the public, potential bond holder can their\n    ///              counter proposal hoping to be selected.\n    /// @param HolderSelection => The issuer select a potential holder from all\n    ///              of those who have expessed interest in taking up the bond.\n    /// @param BondInDispute => signals that a trusted entity between the parties\n    ///                to the bond should lead the meditation process. \n    ///                Once in this stage, all parties involved must approval any\n    ///                further status change.\n    /// @param TermsAgreement => Both the issuer and the selected holder agree\n    ///               on the final terms of the bond. Only the two parties\n    ///               have access to the bond. Security and Appendix section\n    ///               can be added at this stage.\n    /// @param ContractSigned => Once the final version of the terms are agreed, the final\n    ///                 document is hashed with the holders keys. Unless disputes\n    ///                 the bond might spend most of its life time on this status\n    ///                 until its finalised\n    /// @param BondReselling => The bond holder can re-advertise his bond to\n    ///                anyone else.\n    /// @param BondFinalised => The issuer has fulfilled his obligation to pay\n    ///            all the amount in full as agreed on in the terms\n    enum StatusChoice { \n            Negotiating, HolderSelection, BondInDispute, TermsAgreement,\n                ContractSigned, BondReselling, BondFinalised\n        }\n\n    /// @param @param CurrencyType defines the various types of currency types \n    /// supported in the bond declaration.\n    /// @param usd => represents the fiat type.\n    /// @param btc => represents Bitcoin.\n    /// @param eth => represents Ethereum.\n    /// @param etc => represents Ethereum Classic.\n    /// @param xrp => represents Ripple\n    /// @param usdt => represents Tether Coin.\n    /// @param dcr => represents Decred Coin.\n    enum CurrencyType { usd, btc, eth, etc, xrp, usdt, dcr }\n\n    // issuerKey defines the key used to identify data signed by the bond issuer.\n    string issuerKey = \"0x00000000f937\";\n\n    // holderKey defines the key used to identify data signed by the bond holder.\n    string holderKey = \"0x000000017d29\";\n\n    // signedBondStatuses holds the list of all bond statuses signed (approved)\n    // by either of current party to this bond. Signed status to previous parties\n    // are removed immediately they are detected.\n    mapping(bytes32 => uint256) signedBondStatuses;\n\n    // Bond describes the collection of information that make up a bond. \n    struct Bond {\n        // Section: 1 \n        // intro is added by the bond issuer where they describe the motivation\n        // or what they hope  to achieve once the bond is subscribed to.\n        string intro;\n\n        // Section: 2 (body)     \n        // issuer describes the address of the bond issuer. It should always be\n        // set in all bonds.\n        address payable issuer;\n        // holder describes the address of the current bond holder. Once the\n        // bond is resold, the new holder address should be set here.\n        address payable holder;\n        // StatusChoice describes the stages between issuance and completion of\n        // a bond.\n        StatusChoice status;\n        // principal defines the initial amount in the specified currency the\n        // issuer hopes to receive.\n        uint32 principal;\n        // couponRate describes the percentage of the interest the issuer\n        // is willing to pay at the couponDate intervals.\n        uint8 couponRate;\n        // couponDate decribes the interval i.e. monthly, quartely, yearly etc\n        // when the interest is due to be paid to the holder.\n        uint32 couponDate;\n        // maturityDate decribes date when the whole amount owed to the holder\n        // should be cleared/paid in full.\n        uint32 maturityDate;\n        // CurrencyType describes the currency which the bond issue and holder\n        // wishes to transact in.\n        CurrencyType currency;\n\n        // Section: 3\n        // security describe some collataral or a form of a legal action a bond\n        // holder can institute against the issuer should, money in the agreed\n        // amount fail to get to him at the expected date. \n        // Only exposed to the bond issuer and holder only\n        string security;\n\n        // Section: 4\n        // appendix describes any other information including details on how the\n        // bond issuer and holder should make financial with each other.\n        string appendix;\n    }\n\n    // sapphire requires public variables to have an explicitly defined getter\n    // so as to guarrantee privacy.\n    Bond public bond;\n\n    // Once created the issuer address cannot be changed. Accepts a sender address\n    // because the default msg.sender points to the caller contract.\n    constructor(address _sender) {\n        bond.issuer = payable(_sender);\n        bond.status = StatusChoice.Negotiating;\n    }\n\n    // getBond satisfies the requirement to have an explicitly defined getter\n    // method for all public variables declared. \n    function getBond() external view returns (Bond memory) {\n        return bond;\n    }\n\n    // onlyIssuerAllowed restricts bond changes edits to only the issuer.\n    modifier onlyIssuerAllowed(address _sender) {\n       require (\n            _sender == bond.issuer,\n            \"Only the bond issuer can introduce changes\"\n        );\n        _;\n    }\n\n    // bondAlreadyFinalised checks if checks if the Bond has been finalised. \n    // Once finalised no more changes are accepted.\n    modifier bondAlreadyFinalised {\n        require(\n            bond.status != StatusChoice.BondFinalised,\n            \"Bond already finalised\"\n        );\n        _;\n    }\n\n    // bondDetailsInDispute checks if the current bond is being disputed between\n    // the parties involved. This prevents further actions on the bond until\n    // they reconcile by signing the BondInDispute status.\n    modifier bondDetailsInDispute {\n        require(\n            !(bond.status == StatusChoice.BondInDispute && !signaturesExists()),\n            \"Bond disputes not yet resolved by all the parties\"\n        );\n        _;\n    }\n\n    // termsUpdateDisabled prevents further terms edit since the version of the\n    // terms have been agreed upon.\n    // Terms only possible fully or partially only on this bond statuses only:\n    // Negotiating, HolderSelection, BondInDispute, TermsAgreement\n    modifier termsUpdateDisabled {\n        require(\n            uint(bond.status) <= uint(BondContract.StatusChoice.TermsAgreement),\n            \"Bond terms update is disabled\"\n        );\n        _;\n    }\n\n    // setBodyInfo updates the body information. Only the bond issuer can make\n    // this change. \n    function setBodyInfo(\n        CurrencyType _currency, uint32 _principal, uint8 _couponRate,\n        uint32 _couponDate, uint32 _maturityDate, address _sender\n    ) public onlyIssuerAllowed(_sender) bondDetailsInDispute termsUpdateDisabled {\n        bond.currency = _currency;\n        bond.principal = _principal;\n        bond.couponRate = _couponRate;\n        bond.couponDate = _couponDate;\n        bond.maturityDate = _maturityDate;\n    }\n\n    // setStatus sets the bond status. Can be triggered by both the issuer and the\n    // the holder.\n    function setStatus(StatusChoice _status) public bondDetailsInDispute bondAlreadyFinalised {\n        // past the negotiating stage, a holder must be set.\n        require(\n            !(uint8(_status) > uint8(StatusChoice.HolderSelection) && bond.holder == address(0)), \n            \"Missing bond holder address\"\n        );\n\n        // past holder selection stage, all bond body information must be set. \n        require(\n            !(uint8(_status) > uint8(StatusChoice.HolderSelection) && isAnyBondBodyFieldEmpty()),\n            \"Bond body fields may contain empty values\"\n        );\n\n        // If setting the new status to ContractSigned, TermsAgreement must be\n        // signed by both parties. To set ContractSigned status, the previous\n        // status must be TermsAgreement and have it signed.\n        if (_status == StatusChoice.ContractSigned) {\n            require(\n                !(bond.status == StatusChoice.TermsAgreement && !signaturesExists()),\n                \"TermsAgreement must be signed before setting ContractSigned\"\n            );\n        }\n\n        // Removes the prev signatures for BondInDispute and TermsAgreement statuses if they exist.\n        if (_status == StatusChoice.BondInDispute || _status == StatusChoice.TermsAgreement) {\n            deleteSignatures();\n        }\n       \n        bond.status = _status;\n    }\n\n    // setBondHolder sets the bond holder after negotiations are complete.\n    // Once selected, the bond issuer cannot replace the holder. \n    // only the bond issuer can select a bond holder from the interested people.\n    function setBondHolder(\n        address payable _holder, address payable _sender\n    ) public bondDetailsInDispute onlyIssuerAllowed(_sender) {\n        require(bond.issuer != _holder, \"Bond issuer cannot be the holder too\");\n\n        require(\n            uint8(bond.status) == uint8(StatusChoice.HolderSelection), \n            \"Only set during the HolderSelection status\"\n        );\n\n        bond.holder = _holder;\n    }\n\n    // setIntro sets the introduction description. Only the issuer can do this.\n    function setIntro(\n        string memory _intro, address _sender\n    ) public bondDetailsInDispute termsUpdateDisabled onlyIssuerAllowed(_sender) {\n        bond.intro = _intro;\n    }\n\n    // setSecurity sets the security information. Only the issuer can do this. \n    function setSecurity(\n        string memory _security, address _sender\n    ) public bondDetailsInDispute termsUpdateDisabled onlyIssuerAllowed(_sender) {\n        bond.security = _security;\n    }\n\n    // setAppendix sets the Appendix information. Only the issuer can do this.\n    function setAppendix(\n        string memory _appendix, address _sender\n    ) public bondDetailsInDispute termsUpdateDisabled onlyIssuerAllowed(_sender) {\n        bond.appendix = _appendix;\n    }\n\n    // isAnyBondBodyFieldEmpty returns true if either of; principal, couponRate,\n    // couponDate or maturityDate are empty.\n    function isAnyBondBodyFieldEmpty() internal view  returns (bool) {\n        return bond.principal == 0 || bond.couponRate == 0 ||\n            bond.couponDate == 0 || bond.maturityDate == 0;\n    }\n\n    // signBondStatus returns the signed status by the sender. Can only be called \n    // from outside this contract since it sets the signed status signature \n    // against its block timestamp.\n    function signBondStatus(address payable _sender) external {\n         require (\n            _sender == bond.issuer || _sender == bond.holder,\n            \"Unknown bond status signer address used\"\n        );\n\n        bytes32 signature = bondStatusSignature(_sender, bond.status);\n        signedBondStatuses[signature] = block.timestamp;\n    }\n\n    // bondStatusSignature does the actual status signing. Can only be accessed from\n    // this contract.\n    function bondStatusSignature(address _sender, StatusChoice _status) internal view returns (bytes32) {\n         string memory encodingKey = \"\";\n        if (_sender == bond.issuer) {\n            encodingKey = issuerKey;\n        } else {\n            encodingKey = holderKey;\n        }\n\n        return keccak256(abi.encodeWithSignature(encodingKey, _sender, uint8(_status)+1));\n    }\n\n    // signaturesExists confirms if the required bond status has been signed\n    // by all the parties involved.\n    function signaturesExists() view internal returns (bool) {\n        bytes32 issuerSignature = bondStatusSignature(bond.issuer, bond.status);\n        bytes32 holderSignature = bondStatusSignature(bond.holder, bond.status);\n\n        uint256 issuerSigningTime = signedBondStatuses[issuerSignature];\n        uint256 holderSigningTime = signedBondStatuses[holderSignature];\n\n        return issuerSigningTime > 0 && holderSigningTime > 0;\n    }\n\n    // deleteSignatures removes the previous signatures so that fresh ones\n    // can be added. \n    function deleteSignatures() internal {\n        bytes32 issuerSignature = bondStatusSignature(bond.issuer, bond.status);\n        bytes32 holderSignature = bondStatusSignature(bond.holder, bond.status);\n\n        signedBondStatuses[issuerSignature] = 0;\n        signedBondStatuses[holderSignature] = 0;\n    }\n}",
  "sourcePath": "/home/dmigwi/work/app/golang/src/github.com/dmigwi/dhamana-protocol/contracts/bond.sol",
  "compiler": {
    "name": "solc",
    "version": "0.8.13+commit.abaa5c0e.Emscripten.clang"
  },
  "schemaVersion": "3.4.14",
  "updatedAt": "2023-08-02T14:58:48.738Z",
  "devdoc": {
    "author": "dmigwi: (migwindungu0@gmail.com) @2023",
    "kind": "dev",
    "methods": {},
    "title": "Bond Contract.",
    "version": 1
  },
  "userdoc": {
    "kind": "user",
    "methods": {},
    "version": 1
  }
}