{
  "contractName": "BondContract",
  "abi": [
    {
      "inputs": [],
      "stateMutability": "nonpayable",
      "type": "constructor"
    },
    {
      "inputs": [],
      "name": "bond",
      "outputs": [
        {
          "internalType": "string",
          "name": "intro",
          "type": "string"
        },
        {
          "internalType": "address payable",
          "name": "issuer",
          "type": "address"
        },
        {
          "internalType": "address payable",
          "name": "holder",
          "type": "address"
        },
        {
          "internalType": "enum BondContract.StatusChoice",
          "name": "status",
          "type": "uint8"
        },
        {
          "internalType": "uint32",
          "name": "principal",
          "type": "uint32"
        },
        {
          "internalType": "uint8",
          "name": "couponRate",
          "type": "uint8"
        },
        {
          "internalType": "uint32",
          "name": "couponDate",
          "type": "uint32"
        },
        {
          "internalType": "uint32",
          "name": "maturityDate",
          "type": "uint32"
        },
        {
          "internalType": "enum BondContract.CurrencyType",
          "name": "currency",
          "type": "uint8"
        },
        {
          "internalType": "string",
          "name": "security",
          "type": "string"
        },
        {
          "internalType": "string",
          "name": "appendix",
          "type": "string"
        }
      ],
      "stateMutability": "view",
      "type": "function"
    },
    {
      "inputs": [
        {
          "internalType": "enum BondContract.CurrencyType",
          "name": "_currency",
          "type": "uint8"
        },
        {
          "internalType": "uint32",
          "name": "_principal",
          "type": "uint32"
        },
        {
          "internalType": "uint8",
          "name": "_couponRate",
          "type": "uint8"
        },
        {
          "internalType": "uint32",
          "name": "_couponDate",
          "type": "uint32"
        },
        {
          "internalType": "uint32",
          "name": "_maturityDate",
          "type": "uint32"
        }
      ],
      "name": "setBodyInfo",
      "outputs": [],
      "stateMutability": "nonpayable",
      "type": "function"
    },
    {
      "inputs": [
        {
          "internalType": "enum BondContract.StatusChoice",
          "name": "_status",
          "type": "uint8"
        }
      ],
      "name": "setStatus",
      "outputs": [],
      "stateMutability": "nonpayable",
      "type": "function"
    },
    {
      "inputs": [
        {
          "internalType": "address payable",
          "name": "_holder",
          "type": "address"
        }
      ],
      "name": "setBondHolder",
      "outputs": [],
      "stateMutability": "nonpayable",
      "type": "function"
    },
    {
      "inputs": [
        {
          "internalType": "string",
          "name": "_intro",
          "type": "string"
        }
      ],
      "name": "setIntro",
      "outputs": [],
      "stateMutability": "nonpayable",
      "type": "function"
    },
    {
      "inputs": [
        {
          "internalType": "string",
          "name": "_security",
          "type": "string"
        }
      ],
      "name": "setSecurity",
      "outputs": [],
      "stateMutability": "nonpayable",
      "type": "function"
    },
    {
      "inputs": [
        {
          "internalType": "string",
          "name": "_appendix",
          "type": "string"
        }
      ],
      "name": "setAppendix",
      "outputs": [],
      "stateMutability": "nonpayable",
      "type": "function"
    }
  ],
  "bytecode": "0x608060405234801561001057600080fd5b5033600060010160006101000a81548173ffffffffffffffffffffffffffffffffffffffff021916908373ffffffffffffffffffffffffffffffffffffffff16021790555060008060020160146101000a81548160ff0219169083600581111561007d5761007c610087565b5b02179055506100b6565b7f4e487b7100000000000000000000000000000000000000000000000000000000600052602160045260246000fd5b61147d806100c56000396000f3fe608060405234801561001057600080fd5b506004361061007d5760003560e01c806374c1086d1161005b57806374c1086d146100e257806397f093b8146100fe578063b60e78771461011a578063ea1fbef8146101365761007d565b80632e49d78b1461008257806362f93a581461009e57806364c9ec6f146100ba575b600080fd5b61009c60048036038101906100979190610c34565b610152565b005b6100b860048036038101906100b39190610da7565b6101fa565b005b6100c2610321565b6040516100d99b9a99989796959493929190610fb3565b60405180910390f35b6100fc60048036038101906100f79190610da7565b610598565b005b610118600480360381019061011391906110f0565b6106c0565b005b610134600480360381019061012f9190611197565b610889565b005b610150600480360381019061014b9190610da7565b610a30565b005b60058081111561016557610164610eb9565b5b600060020160149054906101000a900460ff16600581111561018a57610189610eb9565b5b146101ca576040517f08c379a00000000000000000000000000000000000000000000000000000000081526004016101c190611210565b60405180910390fd5b80600060020160146101000a81548160ff021916908360058111156101f2576101f1610eb9565b5b021790555050565b600060010160009054906101000a900473ffffffffffffffffffffffffffffffffffffffff1673ffffffffffffffffffffffffffffffffffffffff163373ffffffffffffffffffffffffffffffffffffffff161461028d576040517f08c379a0000000000000000000000000000000000000000000000000000000008152600401610284906112a2565b60405180910390fd5b6005808111156102a05761029f610eb9565b5b600060020160149054906101000a900460ff1660058111156102c5576102c4610eb9565b5b14610305576040517f08c379a00000000000000000000000000000000000000000000000000000000081526004016102fc90611210565b60405180910390fd5b8060008001908051906020019061031d929190610b58565b5050565b6000806000018054610332906112f1565b80601f016020809104026020016040519081016040528092919081815260200182805461035e906112f1565b80156103ab5780601f10610380576101008083540402835291602001916103ab565b820191906000526020600020905b81548152906001019060200180831161038e57829003601f168201915b5050505050908060010160009054906101000a900473ffffffffffffffffffffffffffffffffffffffff16908060020160009054906101000a900473ffffffffffffffffffffffffffffffffffffffff16908060020160149054906101000a900460ff16908060020160159054906101000a900463ffffffff16908060020160199054906101000a900460ff169080600201601a9054906101000a900463ffffffff16908060030160009054906101000a900463ffffffff16908060030160049054906101000a900460ff1690806004018054610487906112f1565b80601f01602080910402602001604051908101604052809291908181526020018280546104b3906112f1565b80156105005780601f106104d557610100808354040283529160200191610500565b820191906000526020600020905b8154815290600101906020018083116104e357829003601f168201915b505050505090806005018054610515906112f1565b80601f0160208091040260200160405190810160405280929190818152602001828054610541906112f1565b801561058e5780601f106105635761010080835404028352916020019161058e565b820191906000526020600020905b81548152906001019060200180831161057157829003601f168201915b505050505090508b565b600060010160009054906101000a900473ffffffffffffffffffffffffffffffffffffffff1673ffffffffffffffffffffffffffffffffffffffff163373ffffffffffffffffffffffffffffffffffffffff161461062b576040517f08c379a0000000000000000000000000000000000000000000000000000000008152600401610622906112a2565b60405180910390fd5b60058081111561063e5761063d610eb9565b5b600060020160149054906101000a900460ff16600581111561066357610662610eb9565b5b146106a3576040517f08c379a000000000000000000000000000000000000000000000000000000000815260040161069a90611210565b60405180910390fd5b80600060040190805190602001906106bc929190610b58565b5050565b600060010160009054906101000a900473ffffffffffffffffffffffffffffffffffffffff1673ffffffffffffffffffffffffffffffffffffffff163373ffffffffffffffffffffffffffffffffffffffff1614610753576040517f08c379a000000000000000000000000000000000000000000000000000000000815260040161074a906112a2565b60405180910390fd5b60058081111561076657610765610eb9565b5b600060020160149054906101000a900460ff16600581111561078b5761078a610eb9565b5b146107cb576040517f08c379a00000000000000000000000000000000000000000000000000000000081526004016107c290611210565b60405180910390fd5b84600060030160046101000a81548160ff021916908360068111156107f3576107f2610eb9565b5b021790555083600060020160156101000a81548163ffffffff021916908363ffffffff16021790555082600060020160196101000a81548160ff021916908360ff160217905550816000600201601a6101000a81548163ffffffff021916908363ffffffff16021790555080600060030160006101000a81548163ffffffff021916908363ffffffff1602179055505050505050565b60058081111561089c5761089b610eb9565b5b600060020160149054906101000a900460ff1660058111156108c1576108c0610eb9565b5b14610901576040517f08c379a00000000000000000000000000000000000000000000000000000000081526004016108f890611210565b60405180910390fd5b8073ffffffffffffffffffffffffffffffffffffffff163373ffffffffffffffffffffffffffffffffffffffff161415610970576040517f08c379a000000000000000000000000000000000000000000000000000000000815260040161096790611395565b60405180910390fd5b6000600581111561098457610983610eb9565b5b600060020160149054906101000a900460ff1660058111156109a9576109a8610eb9565b5b146109e9576040517f08c379a00000000000000000000000000000000000000000000000000000000081526004016109e090611427565b60405180910390fd5b80600060020160006101000a81548173ffffffffffffffffffffffffffffffffffffffff021916908373ffffffffffffffffffffffffffffffffffffffff16021790555050565b600060010160009054906101000a900473ffffffffffffffffffffffffffffffffffffffff1673ffffffffffffffffffffffffffffffffffffffff163373ffffffffffffffffffffffffffffffffffffffff1614610ac3576040517f08c379a0000000000000000000000000000000000000000000000000000000008152600401610aba906112a2565b60405180910390fd5b600580811115610ad657610ad5610eb9565b5b600060020160149054906101000a900460ff166005811115610afb57610afa610eb9565b5b14610b3b576040517f08c379a0000000000000000000000000000000000000000000000000000000008152600401610b3290611210565b60405180910390fd5b8060006005019080519060200190610b54929190610b58565b5050565b828054610b64906112f1565b90600052602060002090601f016020900481019282610b865760008555610bcd565b82601f10610b9f57805160ff1916838001178555610bcd565b82800160010185558215610bcd579182015b82811115610bcc578251825591602001919060010190610bb1565b5b509050610bda9190610bde565b5090565b5b80821115610bf7576000816000905550600101610bdf565b5090565b6000604051905090565b600080fd5b600080fd5b60068110610c1c57600080fd5b50565b600081359050610c2e81610c0f565b92915050565b600060208284031215610c4a57610c49610c05565b5b6000610c5884828501610c1f565b91505092915050565b600080fd5b600080fd5b6000601f19601f8301169050919050565b7f4e487b7100000000000000000000000000000000000000000000000000000000600052604160045260246000fd5b610cb482610c6b565b810181811067ffffffffffffffff82111715610cd357610cd2610c7c565b5b80604052505050565b6000610ce6610bfb565b9050610cf28282610cab565b919050565b600067ffffffffffffffff821115610d1257610d11610c7c565b5b610d1b82610c6b565b9050602081019050919050565b82818337600083830152505050565b6000610d4a610d4584610cf7565b610cdc565b905082815260208101848484011115610d6657610d65610c66565b5b610d71848285610d28565b509392505050565b600082601f830112610d8e57610d8d610c61565b5b8135610d9e848260208601610d37565b91505092915050565b600060208284031215610dbd57610dbc610c05565b5b600082013567ffffffffffffffff811115610ddb57610dda610c0a565b5b610de784828501610d79565b91505092915050565b600081519050919050565b600082825260208201905092915050565b60005b83811015610e2a578082015181840152602081019050610e0f565b83811115610e39576000848401525b50505050565b6000610e4a82610df0565b610e548185610dfb565b9350610e64818560208601610e0c565b610e6d81610c6b565b840191505092915050565b600073ffffffffffffffffffffffffffffffffffffffff82169050919050565b6000610ea382610e78565b9050919050565b610eb381610e98565b82525050565b7f4e487b7100000000000000000000000000000000000000000000000000000000600052602160045260246000fd5b60068110610ef957610ef8610eb9565b5b50565b6000819050610f0a82610ee8565b919050565b6000610f1a82610efc565b9050919050565b610f2a81610f0f565b82525050565b600063ffffffff82169050919050565b610f4981610f30565b82525050565b600060ff82169050919050565b610f6581610f4f565b82525050565b60078110610f7c57610f7b610eb9565b5b50565b6000819050610f8d82610f6b565b919050565b6000610f9d82610f7f565b9050919050565b610fad81610f92565b82525050565b6000610160820190508181036000830152610fce818e610e3f565b9050610fdd602083018d610eaa565b610fea604083018c610eaa565b610ff7606083018b610f21565b611004608083018a610f40565b61101160a0830189610f5c565b61101e60c0830188610f40565b61102b60e0830187610f40565b611039610100830186610fa4565b81810361012083015261104c8185610e3f565b90508181036101408301526110618184610e3f565b90509c9b505050505050505050505050565b6007811061108057600080fd5b50565b60008135905061109281611073565b92915050565b6110a181610f30565b81146110ac57600080fd5b50565b6000813590506110be81611098565b92915050565b6110cd81610f4f565b81146110d857600080fd5b50565b6000813590506110ea816110c4565b92915050565b600080600080600060a0868803121561110c5761110b610c05565b5b600061111a88828901611083565b955050602061112b888289016110af565b945050604061113c888289016110db565b935050606061114d888289016110af565b925050608061115e888289016110af565b9150509295509295909350565b61117481610e98565b811461117f57600080fd5b50565b6000813590506111918161116b565b92915050565b6000602082840312156111ad576111ac610c05565b5b60006111bb84828501611182565b91505092915050565b7f426f6e6420616c72656164792066696e616c6973656400000000000000000000600082015250565b60006111fa601683610dfb565b9150611205826111c4565b602082019050919050565b60006020820190508181036000830152611229816111ed565b9050919050565b7f4f6e6c792074686520626f6e64206973737565722063616e20696e74726f647560008201527f6365206368616e67657300000000000000000000000000000000000000000000602082015250565b600061128c602a83610dfb565b915061129782611230565b604082019050919050565b600060208201905081810360008301526112bb8161127f565b9050919050565b7f4e487b7100000000000000000000000000000000000000000000000000000000600052602260045260246000fd5b6000600282049050600182168061130957607f821691505b6020821081141561131d5761131c6112c2565b5b50919050565b7f426f6e64206973737565722063616e6e6f742062652074686520686f6c64657260008201527f20746f6f00000000000000000000000000000000000000000000000000000000602082015250565b600061137f602483610dfb565b915061138a82611323565b604082019050919050565b600060208201905081810360008301526113ae81611372565b9050919050565b7f43616e6e6f742073657420686f6c64657220647572696e67206e65676f74696160008201527f74696f6e73000000000000000000000000000000000000000000000000000000602082015250565b6000611411602583610dfb565b915061141c826113b5565b604082019050919050565b6000602082019050818103600083015261144081611404565b905091905056fea264697066735822122067cf99c8f408b04e403924903d0c95cf46eb13d59923560b79df95cb4f42c14464736f6c634300080a0033",
  "immutableReferences": {},
  "source": "// SPDX-License-Identifier: GPL-3.0\npragma solidity ^0.8.10;\n\n/// @author dmigwi: (migwindungu0@gmail.com) @2023\n/// @title Bond Contract.\ncontract BondContract {\n\n    /// @param StatusChoice describes the various stages a bond must pass through.\n    /// @param Negotiating => Open to the public, potential bond holder can their\n    ///              counter proposal hoping to be selected.\n    /// @param HolderSelection => The issuer select a potential holder from all\n    ///              of those who have expessed interest in taking up the bond.\n    /// @param TermsAgreement => Both the issuer and the selected holder agree\n    ///               on the final terms of the bond. Only the two parties\n    ///               have access to the bond. Security and Appendix section\n    ///               can be added at this stage.\n    /// @param ContractSigned => Once the final version of the terms are agreed,\n    ///                the final document version is hashed with the holders keys.\n    /// @param BondReselling => The bond holder can re-advertise his bond to\n    ///                anyone else\n    /// @param BondFinalised => The issuer has fulfilled his obligation to pay\n    ///            all the amount in full as agreed on in the terms\n    enum StatusChoice { \n            Negotiating, HolderSelection, TermsAgreement,\n            ContractSigned, BondReselling, BondFinalised \n        }\n\n    /// @param @param CurrencyType defines the various types of currency types \n    /// supported in the bond declaration.\n    /// @param usd => represents the fiat type.\n    /// @param btc => represents Bitcoin.\n    /// @param eth => represents Ethereum.\n    /// @param etc => represents Ethereum Classic.\n    /// @param xrp => represents Ripple\n    /// @param usdt => represents Tether Coin.\n    /// @param dcr => represents Decred Coin.\n    enum CurrencyType { usd, btc, eth, etc, xrp, usdt, dcr }\n\n    // Bond describes the collection of information that make up a bond. \n    struct Bond {\n        // Section: 1 \n        // intro is added by the bond issuer where they describe the motivation\n        // or what they hope  to achieve once the bond is subscribed to.\n        string intro;\n\n        // Section: 2 (body)     \n        // issuer describes the address of the bond issuer. It should always be\n        // set in all bonds.\n        address payable issuer;\n        // holder describes the address of the current bond holder. Once the\n        // bond is resold, the new holder address should be set here.\n        address payable holder;\n        // StatusChoice describes the stages between issuance and completion of\n        // a bond.\n        StatusChoice status;\n        // principal defines the initial amount in the specified currency the\n        // issuer hopes to receive.\n        uint32 principal;\n        // couponRate describes the percentage of the interest the issuer\n        // is willing to pay at the couponDate intervals.\n        uint8 couponRate;\n        // couponDate decribes the interval i.e. monthly, quartely, yearly etc\n        // when the interest is due to be paid to the holder.\n        uint32 couponDate;\n        // maturityDate decribes date when the whole amount owed to the holder\n        // should be cleared/paid in full.\n        uint32 maturityDate;\n        // CurrencyType describes the currency which the bond issue and holder\n        // wishes to transact in.\n        CurrencyType currency;\n\n        // Section: 3\n        // security describe some collataral or a form of a legal action a bond\n        // holder can institute against the issuer should, money in the agreed\n        // amount fail to get to him at the expected date. \n        // Only exposed to the bond issuer and holder only\n        string security;\n\n        // Section: 4\n        // appendix describes any other information including details on how the\n        // bond issuer and holder should make financial with each other.\n        string appendix;\n    }\n\n    Bond public bond;\n\n    // Once created the issuer address cannot be changed.\n    constructor() {\n        bond.issuer = payable(msg.sender);\n        bond.status = StatusChoice.Negotiating;\n    }\n\n    // onlyIssuerAllowed restricts bond changes edits to only the issuer.\n    modifier onlyIssuerAllowed {\n       require (\n            msg.sender == bond.issuer,\n            \"Only the bond issuer can introduce changes\"\n        );\n        _;\n    }\n\n    // bondAlreadyFinalised checks if checks if the Bond has been finalised. \n    // Once finalised no more changes are accepted.\n    modifier bondAlreadyFinalised {\n        require(\n            bond.status == StatusChoice.BondFinalised,\n            \"Bond already finalised\"\n        );\n        _;\n    }\n\n    // setBodyInfo updates the body information. Only the bond issuer can make\n    // this change. \n    function setBodyInfo(\n        CurrencyType _currency, uint32 _principal, uint8 _couponRate,\n        uint32 _couponDate, uint32 _maturityDate) public onlyIssuerAllowed bondAlreadyFinalised {\n        bond.currency = _currency;\n        bond.principal = _principal;\n        bond.couponRate = _couponRate;\n        bond.couponDate = _couponDate;\n        bond.maturityDate = _maturityDate;\n    }\n\n    // setStatus sets the bond status. Can be triggered by both the issuer and the\n    // the holder.\n    function setStatus(StatusChoice _status) public bondAlreadyFinalised {\n        bond.status = _status;\n    }\n\n    // setBondHolder sets the bond holder after negotiations are complete.\n    function setBondHolder(address payable _holder) public bondAlreadyFinalised {\n        require(msg.sender != _holder, \"Bond issuer cannot be the holder too\");\n        require(bond.status == StatusChoice.Negotiating, \"Cannot set holder during negotiations\");\n\n        bond.holder = _holder;\n    }\n\n    // setIntro sets the introduction description. Only the issuer can do this.\n    function setIntro(string memory _intro) public onlyIssuerAllowed bondAlreadyFinalised {\n        bond.intro = _intro;\n    }\n\n    // setSecurity sets the security information. Only the issuer can do this. \n    function setSecurity(string memory _security) public onlyIssuerAllowed bondAlreadyFinalised {\n        bond.security = _security;\n    }\n\n    // setAppendix sets the Appendix information. Only the issuer can do this.\n    function setAppendix(string memory _appendix) public onlyIssuerAllowed bondAlreadyFinalised {\n        bond.appendix = _appendix;\n    }\n}",
  "sourcePath": "/home/dmigwi/work/app/golang/src/github.com/dmigwi/dhamana-protocol/contracts/bond.sol",
  "compiler": {
    "name": "solc",
    "version": "0.8.10+commit.fc410830.Emscripten.clang"
  },
  "schemaVersion": "3.4.14",
  "updatedAt": "2023-07-29T21:05:55.413Z",
  "devdoc": {
    "author": "dmigwi: (migwindungu0@gmail.com) @2023",
    "kind": "dev",
    "methods": {},
    "title": "Bond Contract.",
    "version": 1
  },
  "userdoc": {
    "kind": "user",
    "methods": {},
    "version": 1
  }
}