{
  "contractName": "BondContract",
  "abi": [
    {
      "inputs": [
        {
          "internalType": "address",
          "name": "_sender",
          "type": "address"
        }
      ],
      "stateMutability": "nonpayable",
      "type": "constructor"
    },
    {
      "inputs": [],
      "name": "bond",
      "outputs": [
        {
          "internalType": "string",
          "name": "intro",
          "type": "string"
        },
        {
          "internalType": "address payable",
          "name": "issuer",
          "type": "address"
        },
        {
          "internalType": "address payable",
          "name": "holder",
          "type": "address"
        },
        {
          "internalType": "enum BondContract.StatusChoice",
          "name": "status",
          "type": "uint8"
        },
        {
          "internalType": "uint32",
          "name": "principal",
          "type": "uint32"
        },
        {
          "internalType": "uint8",
          "name": "couponRate",
          "type": "uint8"
        },
        {
          "internalType": "uint32",
          "name": "couponDate",
          "type": "uint32"
        },
        {
          "internalType": "uint32",
          "name": "maturityDate",
          "type": "uint32"
        },
        {
          "internalType": "enum BondContract.CurrencyType",
          "name": "currency",
          "type": "uint8"
        },
        {
          "internalType": "string",
          "name": "security",
          "type": "string"
        },
        {
          "internalType": "string",
          "name": "appendix",
          "type": "string"
        }
      ],
      "stateMutability": "view",
      "type": "function"
    },
    {
      "inputs": [
        {
          "internalType": "enum BondContract.CurrencyType",
          "name": "_currency",
          "type": "uint8"
        },
        {
          "internalType": "uint32",
          "name": "_principal",
          "type": "uint32"
        },
        {
          "internalType": "uint8",
          "name": "_couponRate",
          "type": "uint8"
        },
        {
          "internalType": "uint32",
          "name": "_couponDate",
          "type": "uint32"
        },
        {
          "internalType": "uint32",
          "name": "_maturityDate",
          "type": "uint32"
        },
        {
          "internalType": "address",
          "name": "_sender",
          "type": "address"
        }
      ],
      "name": "setBodyInfo",
      "outputs": [],
      "stateMutability": "nonpayable",
      "type": "function"
    },
    {
      "inputs": [
        {
          "internalType": "enum BondContract.StatusChoice",
          "name": "_status",
          "type": "uint8"
        }
      ],
      "name": "setStatus",
      "outputs": [],
      "stateMutability": "nonpayable",
      "type": "function"
    },
    {
      "inputs": [
        {
          "internalType": "address payable",
          "name": "_holder",
          "type": "address"
        },
        {
          "internalType": "address payable",
          "name": "_sender",
          "type": "address"
        }
      ],
      "name": "setBondHolder",
      "outputs": [],
      "stateMutability": "nonpayable",
      "type": "function"
    },
    {
      "inputs": [
        {
          "internalType": "string",
          "name": "_intro",
          "type": "string"
        },
        {
          "internalType": "address",
          "name": "_sender",
          "type": "address"
        }
      ],
      "name": "setIntro",
      "outputs": [],
      "stateMutability": "nonpayable",
      "type": "function"
    },
    {
      "inputs": [
        {
          "internalType": "string",
          "name": "_security",
          "type": "string"
        },
        {
          "internalType": "address",
          "name": "_sender",
          "type": "address"
        }
      ],
      "name": "setSecurity",
      "outputs": [],
      "stateMutability": "nonpayable",
      "type": "function"
    },
    {
      "inputs": [
        {
          "internalType": "string",
          "name": "_appendix",
          "type": "string"
        },
        {
          "internalType": "address",
          "name": "_sender",
          "type": "address"
        }
      ],
      "name": "setAppendix",
      "outputs": [],
      "stateMutability": "nonpayable",
      "type": "function"
    },
    {
      "inputs": [
        {
          "internalType": "address payable",
          "name": "_sender",
          "type": "address"
        }
      ],
      "name": "signBondStatus",
      "outputs": [],
      "stateMutability": "nonpayable",
      "type": "function"
    }
  ],
  "bytecode": "0x60806040526040518060400160405280600e81526020017f307830303030303030306639333700000000000000000000000000000000000081525060009080519060200190620000519291906200014f565b506040518060400160405280600e81526020017f3078303030303030303137643239000000000000000000000000000000000000815250600190805190602001906200009f9291906200014f565b50348015620000ad57600080fd5b506040516200282d3803806200282d8339818101604052810190620000d3919062000269565b80600360010160006101000a81548173ffffffffffffffffffffffffffffffffffffffff021916908373ffffffffffffffffffffffffffffffffffffffff1602179055506000600360020160146101000a81548160ff021916908360068111156200014357620001426200029b565b5b0217905550506200032f565b8280546200015d90620002f9565b90600052602060002090601f016020900481019282620001815760008555620001cd565b82601f106200019c57805160ff1916838001178555620001cd565b82800160010185558215620001cd579182015b82811115620001cc578251825591602001919060010190620001af565b5b509050620001dc9190620001e0565b5090565b5b80821115620001fb576000816000905550600101620001e1565b5090565b600080fd5b600073ffffffffffffffffffffffffffffffffffffffff82169050919050565b6000620002318262000204565b9050919050565b620002438162000224565b81146200024f57600080fd5b50565b600081519050620002638162000238565b92915050565b600060208284031215620002825762000281620001ff565b5b6000620002928482850162000252565b91505092915050565b7f4e487b7100000000000000000000000000000000000000000000000000000000600052602160045260246000fd5b7f4e487b7100000000000000000000000000000000000000000000000000000000600052602260045260246000fd5b600060028204905060018216806200031257607f821691505b60208210811415620003295762000328620002ca565b5b50919050565b6124ee806200033f6000396000f3fe608060405234801561001057600080fd5b50600436106100885760003560e01c80638ec13d501161005b5780638ec13d5014610109578063a01694a214610125578063d413692214610141578063db3d57a71461015d57610088565b8063083aea571461008d5780632e49d78b146100a957806364c9ec6f146100c557806382626343146100ed575b600080fd5b6100a760048036038101906100a29190611970565b610179565b005b6100c360048036038101906100be91906119f1565b610331565b005b6100cd6106cc565b6040516100e49b9a99989796959493929190611bc1565b60405180910390f35b61010760048036038101906101029190611cfe565b610943565b005b610123600480360381019061011e9190611db7565b610b9a565b005b61013f600480360381019061013a9190611970565b610cc4565b005b61015b60048036038101906101569190611de4565b610e7c565b005b61017760048036038101906101729190611970565b6110f7565b005b6002600681111561018d5761018c611ac7565b5b600360020160149054906101000a900460ff1660068111156101b2576101b1611ac7565b5b1480156101c457506101c26112af565b155b15610204576040517f08c379a00000000000000000000000000000000000000000000000000000000081526004016101fb90611e96565b60405180910390fd5b6003600681111561021857610217611ac7565b5b600360020160149054906101000a900460ff16600681111561023d5761023c611ac7565b5b111561027e576040517f08c379a000000000000000000000000000000000000000000000000000000000815260040161027590611f02565b60405180910390fd5b80600360010160009054906101000a900473ffffffffffffffffffffffffffffffffffffffff1673ffffffffffffffffffffffffffffffffffffffff168173ffffffffffffffffffffffffffffffffffffffff1614610312576040517f08c379a000000000000000000000000000000000000000000000000000000000815260040161030990611f94565b60405180910390fd5b826003600401908051906020019061032b929190611715565b50505050565b6002600681111561034557610344611ac7565b5b600360020160149054906101000a900460ff16600681111561036a57610369611ac7565b5b14801561037c575061037a6112af565b155b156103bc576040517f08c379a00000000000000000000000000000000000000000000000000000000081526004016103b390611e96565b60405180910390fd5b6006808111156103cf576103ce611ac7565b5b600360020160149054906101000a900460ff1660068111156103f4576103f3611ac7565b5b1415610435576040517f08c379a000000000000000000000000000000000000000000000000000000000815260040161042c90612000565b60405180910390fd5b6001600681111561044957610448611ac7565b5b60ff1681600681111561045f5761045e611ac7565b5b60ff161180156104c05750600073ffffffffffffffffffffffffffffffffffffffff16600360020160009054906101000a900473ffffffffffffffffffffffffffffffffffffffff1673ffffffffffffffffffffffffffffffffffffffff16145b15610500576040517f08c379a00000000000000000000000000000000000000000000000000000000081526004016104f79061206c565b60405180910390fd5b6001600681111561051457610513611ac7565b5b60ff1681600681111561052a57610529611ac7565b5b60ff1611801561053e575061053d611383565b5b1561057e576040517f08c379a0000000000000000000000000000000000000000000000000000000008152600401610575906120fe565b60405180910390fd5b6004600681111561059257610591611ac7565b5b8160068111156105a5576105a4611ac7565b5b141561063757600360068111156105bf576105be611ac7565b5b600360020160149054906101000a900460ff1660068111156105e4576105e3611ac7565b5b1480156105f657506105f46112af565b155b15610636576040517f08c379a000000000000000000000000000000000000000000000000000000000815260040161062d90612190565b60405180910390fd5b5b6002600681111561064b5761064a611ac7565b5b81600681111561065e5761065d611ac7565b5b148061068e57506003600681111561067957610678611ac7565b5b81600681111561068c5761068b611ac7565b5b145b1561069c5761069b611413565b5b80600360020160146101000a81548160ff021916908360068111156106c4576106c3611ac7565b5b021790555050565b60038060000180546106dd906121df565b80601f0160208091040260200160405190810160405280929190818152602001828054610709906121df565b80156107565780601f1061072b57610100808354040283529160200191610756565b820191906000526020600020905b81548152906001019060200180831161073957829003601f168201915b5050505050908060010160009054906101000a900473ffffffffffffffffffffffffffffffffffffffff16908060020160009054906101000a900473ffffffffffffffffffffffffffffffffffffffff16908060020160149054906101000a900460ff16908060020160159054906101000a900463ffffffff16908060020160199054906101000a900460ff169080600201601a9054906101000a900463ffffffff16908060030160009054906101000a900463ffffffff16908060030160049054906101000a900460ff1690806004018054610832906121df565b80601f016020809104026020016040519081016040528092919081815260200182805461085e906121df565b80156108ab5780601f10610880576101008083540402835291602001916108ab565b820191906000526020600020905b81548152906001019060200180831161088e57829003601f168201915b5050505050908060050180546108c0906121df565b80601f01602080910402602001604051908101604052809291908181526020018280546108ec906121df565b80156109395780601f1061090e57610100808354040283529160200191610939565b820191906000526020600020905b81548152906001019060200180831161091c57829003601f168201915b505050505090508b565b80600360010160009054906101000a900473ffffffffffffffffffffffffffffffffffffffff1673ffffffffffffffffffffffffffffffffffffffff168173ffffffffffffffffffffffffffffffffffffffff16146109d7576040517f08c379a00000000000000000000000000000000000000000000000000000000081526004016109ce90611f94565b60405180910390fd5b600260068111156109eb576109ea611ac7565b5b600360020160149054906101000a900460ff166006811115610a1057610a0f611ac7565b5b148015610a225750610a206112af565b155b15610a62576040517f08c379a0000000000000000000000000000000000000000000000000000000008152600401610a5990611e96565b60405180910390fd5b60036006811115610a7657610a75611ac7565b5b600360020160149054906101000a900460ff166006811115610a9b57610a9a611ac7565b5b1115610adc576040517f08c379a0000000000000000000000000000000000000000000000000000000008152600401610ad390611f02565b60405180910390fd5b866003800160046101000a81548160ff02191690836006811115610b0357610b02611ac7565b5b021790555085600360020160156101000a81548163ffffffff021916908363ffffffff16021790555084600360020160196101000a81548160ff021916908360ff160217905550836003600201601a6101000a81548163ffffffff021916908363ffffffff160217905550826003800160006101000a81548163ffffffff021916908363ffffffff16021790555050505050505050565b600360010160009054906101000a900473ffffffffffffffffffffffffffffffffffffffff1673ffffffffffffffffffffffffffffffffffffffff168173ffffffffffffffffffffffffffffffffffffffff161480610c495750600360020160009054906101000a900473ffffffffffffffffffffffffffffffffffffffff1673ffffffffffffffffffffffffffffffffffffffff168173ffffffffffffffffffffffffffffffffffffffff16145b610c88576040517f08c379a0000000000000000000000000000000000000000000000000000000008152600401610c7f90612283565b60405180910390fd5b6000610ca682600360020160149054906101000a900460ff166114d3565b90504260026000838152602001908152602001600020819055505050565b60026006811115610cd857610cd7611ac7565b5b600360020160149054906101000a900460ff166006811115610cfd57610cfc611ac7565b5b148015610d0f5750610d0d6112af565b155b15610d4f576040517f08c379a0000000000000000000000000000000000000000000000000000000008152600401610d4690611e96565b60405180910390fd5b60036006811115610d6357610d62611ac7565b5b600360020160149054906101000a900460ff166006811115610d8857610d87611ac7565b5b1115610dc9576040517f08c379a0000000000000000000000000000000000000000000000000000000008152600401610dc090611f02565b60405180910390fd5b80600360010160009054906101000a900473ffffffffffffffffffffffffffffffffffffffff1673ffffffffffffffffffffffffffffffffffffffff168173ffffffffffffffffffffffffffffffffffffffff1614610e5d576040517f08c379a0000000000000000000000000000000000000000000000000000000008152600401610e5490611f94565b60405180910390fd5b8260036005019080519060200190610e76929190611715565b50505050565b60026006811115610e9057610e8f611ac7565b5b600360020160149054906101000a900460ff166006811115610eb557610eb4611ac7565b5b148015610ec75750610ec56112af565b155b15610f07576040517f08c379a0000000000000000000000000000000000000000000000000000000008152600401610efe90611e96565b60405180910390fd5b80600360010160009054906101000a900473ffffffffffffffffffffffffffffffffffffffff1673ffffffffffffffffffffffffffffffffffffffff168173ffffffffffffffffffffffffffffffffffffffff1614610f9b576040517f08c379a0000000000000000000000000000000000000000000000000000000008152600401610f9290611f94565b60405180910390fd5b8273ffffffffffffffffffffffffffffffffffffffff16600360010160009054906101000a900473ffffffffffffffffffffffffffffffffffffffff1673ffffffffffffffffffffffffffffffffffffffff16141561102f576040517f08c379a000000000000000000000000000000000000000000000000000000000815260040161102690612315565b60405180910390fd5b6001600681111561104357611042611ac7565b5b60ff16600360020160149054906101000a900460ff16600681111561106b5761106a611ac7565b5b60ff16146110ae576040517f08c379a00000000000000000000000000000000000000000000000000000000081526004016110a5906123a7565b60405180910390fd5b82600360020160006101000a81548173ffffffffffffffffffffffffffffffffffffffff021916908373ffffffffffffffffffffffffffffffffffffffff160217905550505050565b6002600681111561110b5761110a611ac7565b5b600360020160149054906101000a900460ff1660068111156111305761112f611ac7565b5b14801561114257506111406112af565b155b15611182576040517f08c379a000000000000000000000000000000000000000000000000000000000815260040161117990611e96565b60405180910390fd5b6003600681111561119657611195611ac7565b5b600360020160149054906101000a900460ff1660068111156111bb576111ba611ac7565b5b11156111fc576040517f08c379a00000000000000000000000000000000000000000000000000000000081526004016111f390611f02565b60405180910390fd5b80600360010160009054906101000a900473ffffffffffffffffffffffffffffffffffffffff1673ffffffffffffffffffffffffffffffffffffffff168173ffffffffffffffffffffffffffffffffffffffff1614611290576040517f08c379a000000000000000000000000000000000000000000000000000000000815260040161128790611f94565b60405180910390fd5b82600360000190805190602001906112a9929190611715565b50505050565b6000806112f3600360010160009054906101000a900473ffffffffffffffffffffffffffffffffffffffff16600360020160149054906101000a900460ff166114d3565b90506000611338600360020160009054906101000a900473ffffffffffffffffffffffffffffffffffffffff16600360020160149054906101000a900460ff166114d3565b905060006002600084815260200190815260200160002054905060006002600084815260200190815260200160002054905060008211801561137a5750600081115b94505050505090565b600080600360020160159054906101000a900463ffffffff1663ffffffff1614806113c357506000600360020160199054906101000a900460ff1660ff16145b806113e9575060006003600201601a9054906101000a900463ffffffff1663ffffffff16145b8061140e575060006003800160009054906101000a900463ffffffff1663ffffffff16145b905090565b6000611456600360010160009054906101000a900473ffffffffffffffffffffffffffffffffffffffff16600360020160149054906101000a900460ff166114d3565b9050600061149b600360020160009054906101000a900473ffffffffffffffffffffffffffffffffffffffff16600360020160149054906101000a900460ff166114d3565b905060006002600084815260200190815260200160002081905550600060026000838152602001908152602001600020819055505050565b600080604051806020016040528060008152509050600360010160009054906101000a900473ffffffffffffffffffffffffffffffffffffffff1673ffffffffffffffffffffffffffffffffffffffff168473ffffffffffffffffffffffffffffffffffffffff1614156115d3576000805461154e906121df565b80601f016020809104026020016040519081016040528092919081815260200182805461157a906121df565b80156115c75780601f1061159c576101008083540402835291602001916115c7565b820191906000526020600020905b8154815290600101906020018083116115aa57829003601f168201915b50505050509050611661565b600180546115e0906121df565b80601f016020809104026020016040519081016040528092919081815260200182805461160c906121df565b80156116595780601f1061162e57610100808354040283529160200191611659565b820191906000526020600020905b81548152906001019060200180831161163c57829003601f168201915b505050505090505b8084600185600681111561167857611677611ac7565b5b61168291906123f6565b60405160240161169392919061243c565b604051602081830303815290604052906040516116b091906124a1565b60405180910390207bffffffffffffffffffffffffffffffffffffffffffffffffffffffff19166020820180517bffffffffffffffffffffffffffffffffffffffffffffffffffffffff83818316178352505050508051906020012091505092915050565b828054611721906121df565b90600052602060002090601f016020900481019282611743576000855561178a565b82601f1061175c57805160ff191683800117855561178a565b8280016001018555821561178a579182015b8281111561178957825182559160200191906001019061176e565b5b509050611797919061179b565b5090565b5b808211156117b457600081600090555060010161179c565b5090565b6000604051905090565b600080fd5b600080fd5b600080fd5b600080fd5b6000601f19601f8301169050919050565b7f4e487b7100000000000000000000000000000000000000000000000000000000600052604160045260246000fd5b61181f826117d6565b810181811067ffffffffffffffff8211171561183e5761183d6117e7565b5b80604052505050565b60006118516117b8565b905061185d8282611816565b919050565b600067ffffffffffffffff82111561187d5761187c6117e7565b5b611886826117d6565b9050602081019050919050565b82818337600083830152505050565b60006118b56118b084611862565b611847565b9050828152602081018484840111156118d1576118d06117d1565b5b6118dc848285611893565b509392505050565b600082601f8301126118f9576118f86117cc565b5b81356119098482602086016118a2565b91505092915050565b600073ffffffffffffffffffffffffffffffffffffffff82169050919050565b600061193d82611912565b9050919050565b61194d81611932565b811461195857600080fd5b50565b60008135905061196a81611944565b92915050565b60008060408385031215611987576119866117c2565b5b600083013567ffffffffffffffff8111156119a5576119a46117c7565b5b6119b1858286016118e4565b92505060206119c28582860161195b565b9150509250929050565b600781106119d957600080fd5b50565b6000813590506119eb816119cc565b92915050565b600060208284031215611a0757611a066117c2565b5b6000611a15848285016119dc565b91505092915050565b600081519050919050565b600082825260208201905092915050565b60005b83811015611a58578082015181840152602081019050611a3d565b83811115611a67576000848401525b50505050565b6000611a7882611a1e565b611a828185611a29565b9350611a92818560208601611a3a565b611a9b816117d6565b840191505092915050565b6000611ab182611912565b9050919050565b611ac181611aa6565b82525050565b7f4e487b7100000000000000000000000000000000000000000000000000000000600052602160045260246000fd5b60078110611b0757611b06611ac7565b5b50565b6000819050611b1882611af6565b919050565b6000611b2882611b0a565b9050919050565b611b3881611b1d565b82525050565b600063ffffffff82169050919050565b611b5781611b3e565b82525050565b600060ff82169050919050565b611b7381611b5d565b82525050565b60078110611b8a57611b89611ac7565b5b50565b6000819050611b9b82611b79565b919050565b6000611bab82611b8d565b9050919050565b611bbb81611ba0565b82525050565b6000610160820190508181036000830152611bdc818e611a6d565b9050611beb602083018d611ab8565b611bf8604083018c611ab8565b611c05606083018b611b2f565b611c12608083018a611b4e565b611c1f60a0830189611b6a565b611c2c60c0830188611b4e565b611c3960e0830187611b4e565b611c47610100830186611bb2565b818103610120830152611c5a8185611a6d565b9050818103610140830152611c6f8184611a6d565b90509c9b505050505050505050505050565b60078110611c8e57600080fd5b50565b600081359050611ca081611c81565b92915050565b611caf81611b3e565b8114611cba57600080fd5b50565b600081359050611ccc81611ca6565b92915050565b611cdb81611b5d565b8114611ce657600080fd5b50565b600081359050611cf881611cd2565b92915050565b60008060008060008060c08789031215611d1b57611d1a6117c2565b5b6000611d2989828a01611c91565b9650506020611d3a89828a01611cbd565b9550506040611d4b89828a01611ce9565b9450506060611d5c89828a01611cbd565b9350506080611d6d89828a01611cbd565b92505060a0611d7e89828a0161195b565b9150509295509295509295565b611d9481611aa6565b8114611d9f57600080fd5b50565b600081359050611db181611d8b565b92915050565b600060208284031215611dcd57611dcc6117c2565b5b6000611ddb84828501611da2565b91505092915050565b60008060408385031215611dfb57611dfa6117c2565b5b6000611e0985828601611da2565b9250506020611e1a85828601611da2565b9150509250929050565b7f426f6e64206469737075746573206e6f7420796574207265736f6c766564206260008201527f7920616c6c207468652070617274696573000000000000000000000000000000602082015250565b6000611e80603183611a29565b9150611e8b82611e24565b604082019050919050565b60006020820190508181036000830152611eaf81611e73565b9050919050565b7f426f6e64207465726d73207570646174652069732064697361626c6564000000600082015250565b6000611eec601d83611a29565b9150611ef782611eb6565b602082019050919050565b60006020820190508181036000830152611f1b81611edf565b9050919050565b7f4f6e6c792074686520626f6e64206973737565722063616e20696e74726f647560008201527f6365206368616e67657300000000000000000000000000000000000000000000602082015250565b6000611f7e602a83611a29565b9150611f8982611f22565b604082019050919050565b60006020820190508181036000830152611fad81611f71565b9050919050565b7f426f6e6420616c72656164792066696e616c6973656400000000000000000000600082015250565b6000611fea601683611a29565b9150611ff582611fb4565b602082019050919050565b6000602082019050818103600083015261201981611fdd565b9050919050565b7f4d697373696e6720626f6e6420686f6c64657220616464726573730000000000600082015250565b6000612056601b83611a29565b915061206182612020565b602082019050919050565b6000602082019050818103600083015261208581612049565b9050919050565b7f426f6e6420626f6479206669656c6473206d617920636f6e7461696e20656d7060008201527f74792076616c7565730000000000000000000000000000000000000000000000602082015250565b60006120e8602983611a29565b91506120f38261208c565b604082019050919050565b60006020820190508181036000830152612117816120db565b9050919050565b7f5465726d7341677265656d656e74206d757374206265207369676e656420626560008201527f666f72652073657474696e6720436f6e74726163745369676e65640000000000602082015250565b600061217a603b83611a29565b91506121858261211e565b604082019050919050565b600060208201905081810360008301526121a98161216d565b9050919050565b7f4e487b7100000000000000000000000000000000000000000000000000000000600052602260045260246000fd5b600060028204905060018216806121f757607f821691505b6020821081141561220b5761220a6121b0565b5b50919050565b7f556e6b6e6f776e20626f6e6420737461747573207369676e657220616464726560008201527f7373207573656400000000000000000000000000000000000000000000000000602082015250565b600061226d602783611a29565b915061227882612211565b604082019050919050565b6000602082019050818103600083015261229c81612260565b9050919050565b7f426f6e64206973737565722063616e6e6f742062652074686520686f6c64657260008201527f20746f6f00000000000000000000000000000000000000000000000000000000602082015250565b60006122ff602483611a29565b915061230a826122a3565b604082019050919050565b6000602082019050818103600083015261232e816122f2565b9050919050565b7f4f6e6c792073657420647572696e672074686520486f6c64657253656c65637460008201527f696f6e2073746174757300000000000000000000000000000000000000000000602082015250565b6000612391602a83611a29565b915061239c82612335565b604082019050919050565b600060208201905081810360008301526123c081612384565b9050919050565b7f4e487b7100000000000000000000000000000000000000000000000000000000600052601160045260246000fd5b600061240182611b5d565b915061240c83611b5d565b92508260ff03821115612422576124216123c7565b5b828201905092915050565b61243681611932565b82525050565b6000604082019050612451600083018561242d565b61245e6020830184611b6a565b9392505050565b600081905092915050565b600061247b82611a1e565b6124858185612465565b9350612495818560208601611a3a565b80840191505092915050565b60006124ad8284612470565b91508190509291505056fea2646970667358221220084d5243da913de290cf684394ba941f3a79630d6a7cf2b2a08930facd2ed44b64736f6c634300080a0033",
  "immutableReferences": {},
  "source": "// SPDX-License-Identifier: GPL-3.0\npragma solidity ^0.8.10;\n\n/// @author dmigwi: (migwindungu0@gmail.com) @2023\n/// @title Bond Contract.\ncontract BondContract {\n\n    /// @param StatusChoice describes the various stages a bond must pass through.\n    /// @param Negotiating => Open to the public, potential bond holder can their\n    ///              counter proposal hoping to be selected.\n    /// @param HolderSelection => The issuer select a potential holder from all\n    ///              of those who have expessed interest in taking up the bond.\n    /// @param BondInDispute => signals that a trusted entity between the parties\n    ///                to the bond should lead the meditation process. \n    ///                Once in this stage, all parties involved must approval any\n    ///                further status change.\n    /// @param TermsAgreement => Both the issuer and the selected holder agree\n    ///               on the final terms of the bond. Only the two parties\n    ///               have access to the bond. Security and Appendix section\n    ///               can be added at this stage.\n    /// @param ContractSigned => Once the final version of the terms are agreed, the final\n    ///                 document is hashed with the holders keys. Unless disputes\n    ///                 the bond might spend most of its life time on this status\n    ///                 until its finalised\n    /// @param BondReselling => The bond holder can re-advertise his bond to\n    ///                anyone else.\n    /// @param BondFinalised => The issuer has fulfilled his obligation to pay\n    ///            all the amount in full as agreed on in the terms\n    enum StatusChoice { \n            Negotiating, HolderSelection, BondInDispute, TermsAgreement,\n                ContractSigned, BondReselling, BondFinalised\n        }\n\n    /// @param @param CurrencyType defines the various types of currency types \n    /// supported in the bond declaration.\n    /// @param usd => represents the fiat type.\n    /// @param btc => represents Bitcoin.\n    /// @param eth => represents Ethereum.\n    /// @param etc => represents Ethereum Classic.\n    /// @param xrp => represents Ripple\n    /// @param usdt => represents Tether Coin.\n    /// @param dcr => represents Decred Coin.\n    enum CurrencyType { usd, btc, eth, etc, xrp, usdt, dcr }\n\n    // issuerKey defines the key used to identify data signed by the bond issuer.\n    string issuerKey = \"0x00000000f937\";\n\n    // holderKey defines the key used to identify data signed by the bond holder.\n    string holderKey = \"0x000000017d29\";\n\n    // signedBondStatuses holds the list of all bond statuses signed (approved)\n    // by either of current party to this bond. Signed status to previous parties\n    // are removed immediately they are detected.\n    mapping(bytes32 => uint256) signedBondStatuses;\n\n    // Bond describes the collection of information that make up a bond. \n    struct Bond {\n        // Section: 1 \n        // intro is added by the bond issuer where they describe the motivation\n        // or what they hope  to achieve once the bond is subscribed to.\n        string intro;\n\n        // Section: 2 (body)     \n        // issuer describes the address of the bond issuer. It should always be\n        // set in all bonds.\n        address payable issuer;\n        // holder describes the address of the current bond holder. Once the\n        // bond is resold, the new holder address should be set here.\n        address payable holder;\n        // StatusChoice describes the stages between issuance and completion of\n        // a bond.\n        StatusChoice status;\n        // principal defines the initial amount in the specified currency the\n        // issuer hopes to receive.\n        uint32 principal;\n        // couponRate describes the percentage of the interest the issuer\n        // is willing to pay at the couponDate intervals.\n        uint8 couponRate;\n        // couponDate decribes the interval i.e. monthly, quartely, yearly etc\n        // when the interest is due to be paid to the holder.\n        uint32 couponDate;\n        // maturityDate decribes date when the whole amount owed to the holder\n        // should be cleared/paid in full.\n        uint32 maturityDate;\n        // CurrencyType describes the currency which the bond issue and holder\n        // wishes to transact in.\n        CurrencyType currency;\n\n        // Section: 3\n        // security describe some collataral or a form of a legal action a bond\n        // holder can institute against the issuer should, money in the agreed\n        // amount fail to get to him at the expected date. \n        // Only exposed to the bond issuer and holder only\n        string security;\n\n        // Section: 4\n        // appendix describes any other information including details on how the\n        // bond issuer and holder should make financial with each other.\n        string appendix;\n    }\n\n    Bond public bond;\n\n    // Once created the issuer address cannot be changed. Accepts a sender address\n    // because the default msg.sender points to the caller contract.\n    constructor(address _sender) {\n        bond.issuer = payable(_sender);\n        bond.status = StatusChoice.Negotiating;\n    }\n\n    // onlyIssuerAllowed restricts bond changes edits to only the issuer.\n    modifier onlyIssuerAllowed(address _sender) {\n       require (\n            _sender == bond.issuer,\n            \"Only the bond issuer can introduce changes\"\n        );\n        _;\n    }\n\n    // bondAlreadyFinalised checks if checks if the Bond has been finalised. \n    // Once finalised no more changes are accepted.\n    modifier bondAlreadyFinalised {\n        require(\n            bond.status != StatusChoice.BondFinalised,\n            \"Bond already finalised\"\n        );\n        _;\n    }\n\n    // bondDetailsInDispute checks if the current bond is being disputed between\n    // the parties involved. This prevents further actions on the bond until\n    // they reconcile by signing the BondInDispute status.\n    modifier bondDetailsInDispute {\n        require(\n            !(bond.status == StatusChoice.BondInDispute && !signaturesExists()),\n            \"Bond disputes not yet resolved by all the parties\"\n        );\n        _;\n    }\n\n    // termsUpdateDisabled prevents further terms edit since the version of the\n    // terms have been agreed upon.\n    // Terms only possible fully or partially only on this bond statuses only:\n    // Negotiating, HolderSelection, BondInDispute, TermsAgreement\n    modifier termsUpdateDisabled {\n        require(\n            uint(bond.status) <= uint(BondContract.StatusChoice.TermsAgreement),\n            \"Bond terms update is disabled\"\n        );\n        _;\n    }\n\n    // setBodyInfo updates the body information. Only the bond issuer can make\n    // this change. \n    function setBodyInfo(\n        CurrencyType _currency, uint32 _principal, uint8 _couponRate,\n        uint32 _couponDate, uint32 _maturityDate, address _sender\n    ) public onlyIssuerAllowed(_sender) bondDetailsInDispute termsUpdateDisabled {\n        bond.currency = _currency;\n        bond.principal = _principal;\n        bond.couponRate = _couponRate;\n        bond.couponDate = _couponDate;\n        bond.maturityDate = _maturityDate;\n    }\n\n    // setStatus sets the bond status. Can be triggered by both the issuer and the\n    // the holder.\n    function setStatus(StatusChoice _status) public bondDetailsInDispute bondAlreadyFinalised {\n        // past the negotiating stage, a holder must be set.\n        require(\n            !(uint8(_status) > uint8(StatusChoice.HolderSelection) && bond.holder == address(0)), \n            \"Missing bond holder address\"\n        );\n\n        // past holder selection stage, all bond body information must be set. \n        require(\n            !(uint8(_status) > uint8(StatusChoice.HolderSelection) && isAnyBondBodyFieldEmpty()),\n            \"Bond body fields may contain empty values\"\n        );\n\n        // If setting the new status to ContractSigned, TermsAgreement must be\n        // signed by both parties. To set ContractSigned status, the previous\n        // status must be TermsAgreement and have it signed.\n        if (_status == StatusChoice.ContractSigned) {\n            require(\n                !(bond.status == StatusChoice.TermsAgreement && !signaturesExists()),\n                \"TermsAgreement must be signed before setting ContractSigned\"\n            );\n        }\n\n        // Removes the prev signatures for BondInDispute and TermsAgreement statuses if they exist.\n        if (_status == StatusChoice.BondInDispute || _status == StatusChoice.TermsAgreement) {\n            deleteSignatures();\n        }\n       \n        bond.status = _status;\n    }\n\n    // setBondHolder sets the bond holder after negotiations are complete.\n    // Once selected, the bond issuer cannot replace the holder. \n    // only the bond issuer can select a bond holder from the interested people.\n    function setBondHolder(\n        address payable _holder, address payable _sender\n    ) public bondDetailsInDispute onlyIssuerAllowed(_sender) {\n        require(bond.issuer != _holder, \"Bond issuer cannot be the holder too\");\n\n        require(\n            uint8(bond.status) == uint8(StatusChoice.HolderSelection), \n            \"Only set during the HolderSelection status\"\n        );\n\n        bond.holder = _holder;\n    }\n\n    // setIntro sets the introduction description. Only the issuer can do this.\n    function setIntro(\n        string memory _intro, address _sender\n    ) public bondDetailsInDispute termsUpdateDisabled onlyIssuerAllowed(_sender) {\n        bond.intro = _intro;\n    }\n\n    // setSecurity sets the security information. Only the issuer can do this. \n    function setSecurity(\n        string memory _security, address _sender\n    ) public bondDetailsInDispute termsUpdateDisabled onlyIssuerAllowed(_sender) {\n        bond.security = _security;\n    }\n\n    // setAppendix sets the Appendix information. Only the issuer can do this.\n    function setAppendix(\n        string memory _appendix, address _sender\n    ) public bondDetailsInDispute termsUpdateDisabled onlyIssuerAllowed(_sender) {\n        bond.appendix = _appendix;\n    }\n\n    // isAnyBondBodyFieldEmpty returns true if either of; principal, couponRate,\n    // couponDate or maturityDate are empty.\n    function isAnyBondBodyFieldEmpty() internal view  returns (bool) {\n        return bond.principal == 0 || bond.couponRate == 0 ||\n            bond.couponDate == 0 || bond.maturityDate == 0;\n    }\n\n    // signBondStatus returns the signed status by the sender. Can only be called \n    // from outside this contract since it sets the signed status signature \n    // against its block timestamp.\n    function signBondStatus(address payable _sender) external {\n         require (\n            _sender == bond.issuer || _sender == bond.holder,\n            \"Unknown bond status signer address used\"\n        );\n\n        bytes32 signature = bondStatusSignature(_sender, bond.status);\n        signedBondStatuses[signature] = block.timestamp;\n    }\n\n    // bondStatusSignature does the actual status signing. Can only be accessed from\n    // this contract.\n    function bondStatusSignature(address _sender, StatusChoice _status) internal view returns (bytes32) {\n         string memory encodingKey = \"\";\n        if (_sender == bond.issuer) {\n            encodingKey = issuerKey;\n        } else {\n            encodingKey = holderKey;\n        }\n\n        return keccak256(abi.encodeWithSignature(encodingKey, _sender, uint8(_status)+1));\n    }\n\n    // signaturesExists confirms if the required bond status has been signed\n    // by all the parties involved.\n    function signaturesExists() view internal returns (bool) {\n        bytes32 issuerSignature = bondStatusSignature(bond.issuer, bond.status);\n        bytes32 holderSignature = bondStatusSignature(bond.holder, bond.status);\n\n        uint256 issuerSigningTime = signedBondStatuses[issuerSignature];\n        uint256 holderSigningTime = signedBondStatuses[holderSignature];\n\n        return issuerSigningTime > 0 && holderSigningTime > 0;\n    }\n\n    // deleteSignatures removes the previous signatures so that fresh ones\n    // can be added. \n    function deleteSignatures() internal {\n        bytes32 issuerSignature = bondStatusSignature(bond.issuer, bond.status);\n        bytes32 holderSignature = bondStatusSignature(bond.holder, bond.status);\n\n        signedBondStatuses[issuerSignature] = 0;\n        signedBondStatuses[holderSignature] = 0;\n    }\n}",
  "sourcePath": "/home/dmigwi/work/app/golang/src/github.com/dmigwi/dhamana-protocol/contracts/bond.sol",
  "compiler": {
    "name": "solc",
    "version": "0.8.10+commit.fc410830.Emscripten.clang"
  },
  "schemaVersion": "3.4.14",
  "updatedAt": "2023-07-31T07:07:26.574Z",
  "devdoc": {
    "author": "dmigwi: (migwindungu0@gmail.com) @2023",
    "kind": "dev",
    "methods": {},
    "title": "Bond Contract.",
    "version": 1
  },
  "userdoc": {
    "kind": "user",
    "methods": {},
    "version": 1
  }
}